{"contracts/Minted.sol":{"Minted":{"abi":[{"inputs":[],"stateMutability":"nonpayable","type":"constructor"},{"anonymous":false,"inputs":[{"indexed":true,"internalType":"address","name":"account","type":"address"},{"indexed":true,"internalType":"address","name":"operator","type":"address"},{"indexed":false,"internalType":"bool","name":"approved","type":"bool"}],"name":"ApprovalForAll","type":"event"},{"anonymous":false,"inputs":[{"indexed":true,"internalType":"address","name":"previousOwner","type":"address"},{"indexed":true,"internalType":"address","name":"newOwner","type":"address"}],"name":"OwnershipTransferred","type":"event"},{"anonymous":false,"inputs":[{"indexed":true,"internalType":"address","name":"operator","type":"address"},{"indexed":true,"internalType":"address","name":"from","type":"address"},{"indexed":true,"internalType":"address","name":"to","type":"address"},{"indexed":false,"internalType":"uint256[]","name":"ids","type":"uint256[]"},{"indexed":false,"internalType":"uint256[]","name":"values","type":"uint256[]"}],"name":"TransferBatch","type":"event"},{"anonymous":false,"inputs":[{"indexed":true,"internalType":"address","name":"operator","type":"address"},{"indexed":true,"internalType":"address","name":"from","type":"address"},{"indexed":true,"internalType":"address","name":"to","type":"address"},{"indexed":false,"internalType":"uint256","name":"id","type":"uint256"},{"indexed":false,"internalType":"uint256","name":"value","type":"uint256"}],"name":"TransferSingle","type":"event"},{"anonymous":false,"inputs":[{"indexed":false,"internalType":"string","name":"value","type":"string"},{"indexed":true,"internalType":"uint256","name":"id","type":"uint256"}],"name":"URI","type":"event"},{"inputs":[{"internalType":"address","name":"account","type":"address"},{"internalType":"uint256","name":"id","type":"uint256"}],"name":"balanceOf","outputs":[{"internalType":"uint256","name":"","type":"uint256"}],"stateMutability":"view","type":"function"},{"inputs":[{"internalType":"address[]","name":"accounts","type":"address[]"},{"internalType":"uint256[]","name":"ids","type":"uint256[]"}],"name":"balanceOfBatch","outputs":[{"internalType":"uint256[]","name":"","type":"uint256[]"}],"stateMutability":"view","type":"function"},{"inputs":[],"name":"cost","outputs":[{"internalType":"uint256","name":"","type":"uint256"}],"stateMutability":"view","type":"function"},{"inputs":[{"internalType":"uint256","name":"id","type":"uint256"}],"name":"exists","outputs":[{"internalType":"bool","name":"","type":"bool"}],"stateMutability":"view","type":"function"},{"inputs":[],"name":"getTokenIdCounter","outputs":[{"internalType":"uint256","name":"","type":"uint256"}],"stateMutability":"view","type":"function"},{"inputs":[{"internalType":"address","name":"account","type":"address"},{"internalType":"address","name":"operator","type":"address"}],"name":"isApprovedForAll","outputs":[{"internalType":"bool","name":"","type":"bool"}],"stateMutability":"view","type":"function"},{"inputs":[{"internalType":"uint256","name":"amount","type":"uint256"},{"internalType":"string","name":"setUri","type":"string"}],"name":"mint","outputs":[],"stateMutability":"payable","type":"function"},{"inputs":[],"name":"owner","outputs":[{"internalType":"address","name":"","type":"address"}],"stateMutability":"view","type":"function"},{"inputs":[],"name":"renounceOwnership","outputs":[],"stateMutability":"nonpayable","type":"function"},{"inputs":[{"internalType":"address","name":"from","type":"address"},{"internalType":"address","name":"to","type":"address"},{"internalType":"uint256[]","name":"ids","type":"uint256[]"},{"internalType":"uint256[]","name":"amounts","type":"uint256[]"},{"internalType":"bytes","name":"data","type":"bytes"}],"name":"safeBatchTransferFrom","outputs":[],"stateMutability":"nonpayable","type":"function"},{"inputs":[{"internalType":"address","name":"from","type":"address"},{"internalType":"address","name":"to","type":"address"},{"internalType":"uint256","name":"id","type":"uint256"},{"internalType":"uint256","name":"amount","type":"uint256"},{"internalType":"bytes","name":"data","type":"bytes"}],"name":"safeTransferFrom","outputs":[],"stateMutability":"nonpayable","type":"function"},{"inputs":[{"internalType":"address","name":"operator","type":"address"},{"internalType":"bool","name":"approved","type":"bool"}],"name":"setApprovalForAll","outputs":[],"stateMutability":"nonpayable","type":"function"},{"inputs":[{"internalType":"uint256","name":"_cost","type":"uint256"}],"name":"setCost","outputs":[],"stateMutability":"nonpayable","type":"function"},{"inputs":[{"internalType":"bytes4","name":"interfaceId","type":"bytes4"}],"name":"supportsInterface","outputs":[{"internalType":"bool","name":"","type":"bool"}],"stateMutability":"view","type":"function"},{"inputs":[{"internalType":"uint256","name":"id","type":"uint256"}],"name":"totalSupply","outputs":[{"internalType":"uint256","name":"","type":"uint256"}],"stateMutability":"view","type":"function"},{"inputs":[{"internalType":"address","name":"newOwner","type":"address"}],"name":"transferOwnership","outputs":[],"stateMutability":"nonpayable","type":"function"},{"inputs":[{"internalType":"uint256","name":"","type":"uint256"}],"name":"uri","outputs":[{"internalType":"string","name":"","type":"string"}],"stateMutability":"view","type":"function"},{"inputs":[],"name":"withdraw","outputs":[],"stateMutability":"nonpayable","type":"function"}],"evm":{"bytecode":{"linkReferences":{},"object":"6080604052662386f26fc1000060055560006006553480156200002157600080fd5b506040518060200160405280600081525062000043816200006a60201b60201c565b5062000064620000586200007f60201b60201c565b6200008760201b60201c565b620004ae565b80600290816200007b9190620003c7565b5050565b600033905090565b6000600360009054906101000a900473ffffffffffffffffffffffffffffffffffffffff16905081600360006101000a81548173ffffffffffffffffffffffffffffffffffffffff021916908373ffffffffffffffffffffffffffffffffffffffff1602179055508173ffffffffffffffffffffffffffffffffffffffff168173ffffffffffffffffffffffffffffffffffffffff167f8be0079c531659141344cd1fd0a4f28419497f9722a3daafe3b4186f6b6457e060405160405180910390a35050565b600081519050919050565b7f4e487b7100000000000000000000000000000000000000000000000000000000600052604160045260246000fd5b7f4e487b7100000000000000000000000000000000000000000000000000000000600052602260045260246000fd5b60006002820490506001821680620001cf57607f821691505b602082108103620001e557620001e462000187565b5b50919050565b60008190508160005260206000209050919050565b60006020601f8301049050919050565b600082821b905092915050565b6000600883026200024f7fffffffffffffffffffffffffffffffffffffffffffffffffffffffffffffffff8262000210565b6200025b868362000210565b95508019841693508086168417925050509392505050565b6000819050919050565b6000819050919050565b6000620002a8620002a26200029c8462000273565b6200027d565b62000273565b9050919050565b6000819050919050565b620002c48362000287565b620002dc620002d382620002af565b8484546200021d565b825550505050565b600090565b620002f3620002e4565b62000300818484620002b9565b505050565b5b8181101562000328576200031c600082620002e9565b60018101905062000306565b5050565b601f82111562000377576200034181620001eb565b6200034c8462000200565b810160208510156200035c578190505b620003746200036b8562000200565b83018262000305565b50505b505050565b600082821c905092915050565b60006200039c600019846008026200037c565b1980831691505092915050565b6000620003b7838362000389565b9150826002028217905092915050565b620003d2826200014d565b67ffffffffffffffff811115620003ee57620003ed62000158565b5b620003fa8254620001b6565b620004078282856200032c565b600060209050601f8311600181146200043f57600084156200042a578287015190505b620004368582620003a9565b865550620004a6565b601f1984166200044f86620001eb565b60005b82811015620004795784890151825560018201915060208501945060208101905062000452565b8683101562000499578489015162000495601f89168262000389565b8355505b6001600288020188555050505b505050505050565b6132eb80620004be6000396000f3fe6080604052600436106101085760003560e01c8063715018a611610095578063bd85b03911610064578063bd85b03914610359578063dbfd4b9814610396578063e985e9c5146103c1578063f242432a146103fe578063f2fde38b1461042757610108565b8063715018a6146102d257806377097fc8146102e95780638da5cb5b14610305578063a22cb4651461033057610108565b80632eb2c2d6116100dc5780632eb2c2d6146101ef5780633ccfd60b1461021857806344a0d68a1461022f5780634e1273f4146102585780634f558e791461029557610108565b8062fdd58e1461010d57806301ffc9a71461014a5780630e89341c1461018757806313faede6146101c4575b600080fd5b34801561011957600080fd5b50610134600480360381019061012f9190611d8f565b610450565b6040516101419190611dde565b60405180910390f35b34801561015657600080fd5b50610171600480360381019061016c9190611e51565b610518565b60405161017e9190611e99565b60405180910390f35b34801561019357600080fd5b506101ae60048036038101906101a99190611eb4565b61052a565b6040516101bb9190611f71565b60405180910390f35b3480156101d057600080fd5b506101d96105be565b6040516101e69190611dde565b60405180910390f35b3480156101fb57600080fd5b5061021660048036038101906102119190612190565b6105c4565b005b34801561022457600080fd5b5061022d610665565b005b34801561023b57600080fd5b5061025660048036038101906102519190611eb4565b6106bd565b005b34801561026457600080fd5b5061027f600480360381019061027a9190612322565b6106cf565b60405161028c9190612458565b60405180910390f35b3480156102a157600080fd5b506102bc60048036038101906102b79190611eb4565b6107e8565b6040516102c99190611e99565b60405180910390f35b3480156102de57600080fd5b506102e76107fc565b005b61030360048036038101906102fe919061251b565b610810565b005b34801561031157600080fd5b5061031a6108c9565b6040516103279190612586565b60405180910390f35b34801561033c57600080fd5b50610357600480360381019061035291906125cd565b6108f3565b005b34801561036557600080fd5b50610380600480360381019061037b9190611eb4565b610909565b60405161038d9190611dde565b60405180910390f35b3480156103a257600080fd5b506103ab61091b565b6040516103b89190611dde565b60405180910390f35b3480156103cd57600080fd5b506103e860048036038101906103e3919061260d565b610925565b6040516103f59190611e99565b60405180910390f35b34801561040a57600080fd5b506104256004803603810190610420919061264d565b6109b9565b005b34801561043357600080fd5b5061044e600480360381019061044991906126e4565b610a5a565b005b60008073ffffffffffffffffffffffffffffffffffffffff168373ffffffffffffffffffffffffffffffffffffffff16036104c0576040517f08c379a00000000000000000000000000000000000000000000000000000000081526004016104b790612783565b60405180910390fd5b60008083815260200190815260200160002060008473ffffffffffffffffffffffffffffffffffffffff1673ffffffffffffffffffffffffffffffffffffffff16815260200190815260200160002054905092915050565b600061052382610add565b9050919050565b606060028054610539906127d2565b80601f0160208091040260200160405190810160405280929190818152602001828054610565906127d2565b80156105b25780601f10610587576101008083540402835291602001916105b2565b820191906000526020600020905b81548152906001019060200180831161059557829003601f168201915b50505050509050919050565b60055481565b6105cc610bbf565b73ffffffffffffffffffffffffffffffffffffffff168573ffffffffffffffffffffffffffffffffffffffff16148061061257506106118561060c610bbf565b610925565b5b610651576040517f08c379a000000000000000000000000000000000000000000000000000000000815260040161064890612875565b60405180910390fd5b61065e8585858585610bc7565b5050505050565b61066d610ee8565b6106756108c9565b73ffffffffffffffffffffffffffffffffffffffff166108fc479081150290604051600060405180830381858888f193505050501580156106ba573d6000803e3d6000fd5b50565b6106c5610ee8565b8060058190555050565b60608151835114610715576040517f08c379a000000000000000000000000000000000000000000000000000000000815260040161070c90612907565b60405180910390fd5b6000835167ffffffffffffffff81111561073257610731611f98565b5b6040519080825280602002602001820160405280156107605781602001602082028036833780820191505090505b50905060005b84518110156107dd576107ad85828151811061078557610784612927565b5b60200260200101518583815181106107a05761079f612927565b5b6020026020010151610450565b8282815181106107c0576107bf612927565b5b602002602001018181525050806107d690612985565b9050610766565b508091505092915050565b6000806107f483610f66565b119050919050565b610804610ee8565b61080e6000610f83565b565b8160055461081e91906129cd565b341015610860576040517f08c379a000000000000000000000000000000000000000000000000000000000815260040161085790612a5b565b60405180910390fd5b60005b828110156108c4576000600654905061088e3382600160405180602001604052806000815250611049565b61089881846111f9565b600660008154809291906108ab90612985565b91905055505080806108bc90612985565b915050610863565b505050565b6000600360009054906101000a900473ffffffffffffffffffffffffffffffffffffffff16905090565b6109056108fe610bbf565b8383611235565b5050565b600061091482610f66565b9050919050565b6000600654905090565b6000600160008473ffffffffffffffffffffffffffffffffffffffff1673ffffffffffffffffffffffffffffffffffffffff16815260200190815260200160002060008373ffffffffffffffffffffffffffffffffffffffff1673ffffffffffffffffffffffffffffffffffffffff16815260200190815260200160002060009054906101000a900460ff16905092915050565b6109c1610bbf565b73ffffffffffffffffffffffffffffffffffffffff168573ffffffffffffffffffffffffffffffffffffffff161480610a075750610a0685610a01610bbf565b610925565b5b610a46576040517f08c379a0000000000000000000000000000000000000000000000000000000008152600401610a3d90612875565b60405180910390fd5b610a5385858585856113a1565b5050505050565b610a62610ee8565b600073ffffffffffffffffffffffffffffffffffffffff168173ffffffffffffffffffffffffffffffffffffffff1603610ad1576040517f08c379a0000000000000000000000000000000000000000000000000000000008152600401610ac890612aed565b60405180910390fd5b610ada81610f83565b50565b60007fd9b67a26000000000000000000000000000000000000000000000000000000007bffffffffffffffffffffffffffffffffffffffffffffffffffffffff1916827bffffffffffffffffffffffffffffffffffffffffffffffffffffffff19161480610ba857507f0e89341c000000000000000000000000000000000000000000000000000000007bffffffffffffffffffffffffffffffffffffffffffffffffffffffff1916827bffffffffffffffffffffffffffffffffffffffffffffffffffffffff1916145b80610bb85750610bb78261163c565b5b9050919050565b600033905090565b8151835114610c0b576040517f08c379a0000000000000000000000000000000000000000000000000000000008152600401610c0290612b7f565b60405180910390fd5b600073ffffffffffffffffffffffffffffffffffffffff168473ffffffffffffffffffffffffffffffffffffffff1603610c7a576040517f08c379a0000000000000000000000000000000000000000000000000000000008152600401610c7190612c11565b60405180910390fd5b6000610c84610bbf565b9050610c948187878787876116a6565b60005b8451811015610e45576000858281518110610cb557610cb4612927565b5b602002602001015190506000858381518110610cd457610cd3612927565b5b60200260200101519050600080600084815260200190815260200160002060008b73ffffffffffffffffffffffffffffffffffffffff1673ffffffffffffffffffffffffffffffffffffffff16815260200190815260200160002054905081811015610d75576040517f08c379a0000000000000000000000000000000000000000000000000000000008152600401610d6c90612ca3565b60405180910390fd5b81810360008085815260200190815260200160002060008c73ffffffffffffffffffffffffffffffffffffffff1673ffffffffffffffffffffffffffffffffffffffff168152602001908152602001600020819055508160008085815260200190815260200160002060008b73ffffffffffffffffffffffffffffffffffffffff1673ffffffffffffffffffffffffffffffffffffffff1681526020019081526020016000206000828254610e2a9190612cc3565b9250508190555050505080610e3e90612985565b9050610c97565b508473ffffffffffffffffffffffffffffffffffffffff168673ffffffffffffffffffffffffffffffffffffffff168273ffffffffffffffffffffffffffffffffffffffff167f4a39dc06d4c0dbc64b70af90fd698a233a518aa5d07e595d983b8c0526c8f7fb8787604051610ebc929190612cf7565b60405180910390a4610ed28187878787876116bc565b610ee08187878787876116c4565b505050505050565b610ef0610bbf565b73ffffffffffffffffffffffffffffffffffffffff16610f0e6108c9565b73ffffffffffffffffffffffffffffffffffffffff1614610f64576040517f08c379a0000000000000000000000000000000000000000000000000000000008152600401610f5b90612d7a565b60405180910390fd5b565b600060046000838152602001908152602001600020549050919050565b6000600360009054906101000a900473ffffffffffffffffffffffffffffffffffffffff16905081600360006101000a81548173ffffffffffffffffffffffffffffffffffffffff021916908373ffffffffffffffffffffffffffffffffffffffff1602179055508173ffffffffffffffffffffffffffffffffffffffff168173ffffffffffffffffffffffffffffffffffffffff167f8be0079c531659141344cd1fd0a4f28419497f9722a3daafe3b4186f6b6457e060405160405180910390a35050565b600073ffffffffffffffffffffffffffffffffffffffff168473ffffffffffffffffffffffffffffffffffffffff16036110b8576040517f08c379a00000000000000000000000000000000000000000000000000000000081526004016110af90612e0c565b60405180910390fd5b60006110c2610bbf565b905060006110cf8561189b565b905060006110dc8561189b565b90506110ed836000898585896116a6565b8460008088815260200190815260200160002060008973ffffffffffffffffffffffffffffffffffffffff1673ffffffffffffffffffffffffffffffffffffffff168152602001908152602001600020600082825461114c9190612cc3565b925050819055508673ffffffffffffffffffffffffffffffffffffffff16600073ffffffffffffffffffffffffffffffffffffffff168473ffffffffffffffffffffffffffffffffffffffff167fc3d58168c5ae7397731d063d5bbf3d657854427343f4c083240f7aacaa2d0f6289896040516111ca929190612e2c565b60405180910390a46111e1836000898585896116bc565b6111f083600089898989611915565b50505050505050565b817f6bb7ff708619ba0610cba295a58592e0451dee2622938c8755667688daf3529b826040516112299190611f71565b60405180910390a25050565b8173ffffffffffffffffffffffffffffffffffffffff168373ffffffffffffffffffffffffffffffffffffffff16036112a3576040517f08c379a000000000000000000000000000000000000000000000000000000000815260040161129a90612ec7565b60405180910390fd5b80600160008573ffffffffffffffffffffffffffffffffffffffff1673ffffffffffffffffffffffffffffffffffffffff16815260200190815260200160002060008473ffffffffffffffffffffffffffffffffffffffff1673ffffffffffffffffffffffffffffffffffffffff16815260200190815260200160002060006101000a81548160ff0219169083151502179055508173ffffffffffffffffffffffffffffffffffffffff168373ffffffffffffffffffffffffffffffffffffffff167f17307eab39ab6107e8899845ad3d59bd9653f200f220920489ca2b5937696c31836040516113949190611e99565b60405180910390a3505050565b600073ffffffffffffffffffffffffffffffffffffffff168473ffffffffffffffffffffffffffffffffffffffff1603611410576040517f08c379a000000000000000000000000000000000000000000000000000000000815260040161140790612c11565b60405180910390fd5b600061141a610bbf565b905060006114278561189b565b905060006114348561189b565b90506114448389898585896116a6565b600080600088815260200190815260200160002060008a73ffffffffffffffffffffffffffffffffffffffff1673ffffffffffffffffffffffffffffffffffffffff168152602001908152602001600020549050858110156114db576040517f08c379a00000000000000000000000000000000000000000000000000000000081526004016114d290612ca3565b60405180910390fd5b85810360008089815260200190815260200160002060008b73ffffffffffffffffffffffffffffffffffffffff1673ffffffffffffffffffffffffffffffffffffffff168152602001908152602001600020819055508560008089815260200190815260200160002060008a73ffffffffffffffffffffffffffffffffffffffff1673ffffffffffffffffffffffffffffffffffffffff16815260200190815260200160002060008282546115909190612cc3565b925050819055508773ffffffffffffffffffffffffffffffffffffffff168973ffffffffffffffffffffffffffffffffffffffff168573ffffffffffffffffffffffffffffffffffffffff167fc3d58168c5ae7397731d063d5bbf3d657854427343f4c083240f7aacaa2d0f628a8a60405161160d929190612e2c565b60405180910390a4611623848a8a86868a6116bc565b611631848a8a8a8a8a611915565b505050505050505050565b60007f01ffc9a7000000000000000000000000000000000000000000000000000000007bffffffffffffffffffffffffffffffffffffffffffffffffffffffff1916827bffffffffffffffffffffffffffffffffffffffffffffffffffffffff1916149050919050565b6116b4868686868686611aec565b505050505050565b505050505050565b6116e38473ffffffffffffffffffffffffffffffffffffffff16611cbc565b15611893578373ffffffffffffffffffffffffffffffffffffffff1663bc197c8187878686866040518663ffffffff1660e01b8152600401611729959493929190612f3c565b6020604051808303816000875af192505050801561176557506040513d601f19601f820116820180604052508101906117629190612fb9565b60015b61180a57611771612ff3565b806308c379a0036117cd5750611785613015565b8061179057506117cf565b806040517f08c379a00000000000000000000000000000000000000000000000000000000081526004016117c49190611f71565b60405180910390fd5b505b6040517f08c379a000000000000000000000000000000000000000000000000000000000815260040161180190613117565b60405180910390fd5b63bc197c8160e01b7bffffffffffffffffffffffffffffffffffffffffffffffffffffffff1916817bffffffffffffffffffffffffffffffffffffffffffffffffffffffff191614611891576040517f08c379a0000000000000000000000000000000000000000000000000000000008152600401611888906131a9565b60405180910390fd5b505b505050505050565b60606000600167ffffffffffffffff8111156118ba576118b9611f98565b5b6040519080825280602002602001820160405280156118e85781602001602082028036833780820191505090505b5090508281600081518110611900576118ff612927565b5b60200260200101818152505080915050919050565b6119348473ffffffffffffffffffffffffffffffffffffffff16611cbc565b15611ae4578373ffffffffffffffffffffffffffffffffffffffff1663f23a6e6187878686866040518663ffffffff1660e01b815260040161197a9594939291906131c9565b6020604051808303816000875af19250505080156119b657506040513d601f19601f820116820180604052508101906119b39190612fb9565b60015b611a5b576119c2612ff3565b806308c379a003611a1e57506119d6613015565b806119e15750611a20565b806040517f08c379a0000000000000000000000000000000000000000000000000000000008152600401611a159190611f71565b60405180910390fd5b505b6040517f08c379a0000000000000000000000000000000000000000000000000000000008152600401611a5290613117565b60405180910390fd5b63f23a6e6160e01b7bffffffffffffffffffffffffffffffffffffffffffffffffffffffff1916817bffffffffffffffffffffffffffffffffffffffffffffffffffffffff191614611ae2576040517f08c379a0000000000000000000000000000000000000000000000000000000008152600401611ad9906131a9565b60405180910390fd5b505b505050505050565b611afa868686868686611cdf565b600073ffffffffffffffffffffffffffffffffffffffff168573ffffffffffffffffffffffffffffffffffffffff1603611bab5760005b8351811015611ba957828181518110611b4d57611b4c612927565b5b602002602001015160046000868481518110611b6c57611b6b612927565b5b602002602001015181526020019081526020016000206000828254611b919190612cc3565b9250508190555080611ba290612985565b9050611b31565b505b600073ffffffffffffffffffffffffffffffffffffffff168473ffffffffffffffffffffffffffffffffffffffff1603611cb45760005b8351811015611cb2576000848281518110611c0057611bff612927565b5b602002602001015190506000848381518110611c1f57611c1e612927565b5b6020026020010151905060006004600084815260200190815260200160002054905081811015611c84576040517f08c379a0000000000000000000000000000000000000000000000000000000008152600401611c7b90613295565b60405180910390fd5b818103600460008581526020019081526020016000208190555050505080611cab90612985565b9050611be2565b505b505050505050565b6000808273ffffffffffffffffffffffffffffffffffffffff163b119050919050565b505050505050565b6000604051905090565b600080fd5b600080fd5b600073ffffffffffffffffffffffffffffffffffffffff82169050919050565b6000611d2682611cfb565b9050919050565b611d3681611d1b565b8114611d4157600080fd5b50565b600081359050611d5381611d2d565b92915050565b6000819050919050565b611d6c81611d59565b8114611d7757600080fd5b50565b600081359050611d8981611d63565b92915050565b60008060408385031215611da657611da5611cf1565b5b6000611db485828601611d44565b9250506020611dc585828601611d7a565b9150509250929050565b611dd881611d59565b82525050565b6000602082019050611df36000830184611dcf565b92915050565b60007fffffffff0000000000000000000000000000000000000000000000000000000082169050919050565b611e2e81611df9565b8114611e3957600080fd5b50565b600081359050611e4b81611e25565b92915050565b600060208284031215611e6757611e66611cf1565b5b6000611e7584828501611e3c565b91505092915050565b60008115159050919050565b611e9381611e7e565b82525050565b6000602082019050611eae6000830184611e8a565b92915050565b600060208284031215611eca57611ec9611cf1565b5b6000611ed884828501611d7a565b91505092915050565b600081519050919050565b600082825260208201905092915050565b60005b83811015611f1b578082015181840152602081019050611f00565b60008484015250505050565b6000601f19601f8301169050919050565b6000611f4382611ee1565b611f4d8185611eec565b9350611f5d818560208601611efd565b611f6681611f27565b840191505092915050565b60006020820190508181036000830152611f8b8184611f38565b905092915050565b600080fd5b7f4e487b7100000000000000000000000000000000000000000000000000000000600052604160045260246000fd5b611fd082611f27565b810181811067ffffffffffffffff82111715611fef57611fee611f98565b5b80604052505050565b6000612002611ce7565b905061200e8282611fc7565b919050565b600067ffffffffffffffff82111561202e5761202d611f98565b5b602082029050602081019050919050565b600080fd5b600061205761205284612013565b611ff8565b9050808382526020820190506020840283018581111561207a5761207961203f565b5b835b818110156120a3578061208f8882611d7a565b84526020840193505060208101905061207c565b5050509392505050565b600082601f8301126120c2576120c1611f93565b5b81356120d2848260208601612044565b91505092915050565b600080fd5b600067ffffffffffffffff8211156120fb576120fa611f98565b5b61210482611f27565b9050602081019050919050565b82818337600083830152505050565b600061213361212e846120e0565b611ff8565b90508281526020810184848401111561214f5761214e6120db565b5b61215a848285612111565b509392505050565b600082601f83011261217757612176611f93565b5b8135612187848260208601612120565b91505092915050565b600080600080600060a086880312156121ac576121ab611cf1565b5b60006121ba88828901611d44565b95505060206121cb88828901611d44565b945050604086013567ffffffffffffffff8111156121ec576121eb611cf6565b5b6121f8888289016120ad565b935050606086013567ffffffffffffffff81111561221957612218611cf6565b5b612225888289016120ad565b925050608086013567ffffffffffffffff81111561224657612245611cf6565b5b61225288828901612162565b9150509295509295909350565b600067ffffffffffffffff82111561227a57612279611f98565b5b602082029050602081019050919050565b600061229e6122998461225f565b611ff8565b905080838252602082019050602084028301858111156122c1576122c061203f565b5b835b818110156122ea57806122d68882611d44565b8452602084019350506020810190506122c3565b5050509392505050565b600082601f83011261230957612308611f93565b5b813561231984826020860161228b565b91505092915050565b6000806040838503121561233957612338611cf1565b5b600083013567ffffffffffffffff81111561235757612356611cf6565b5b612363858286016122f4565b925050602083013567ffffffffffffffff81111561238457612383611cf6565b5b612390858286016120ad565b9150509250929050565b600081519050919050565b600082825260208201905092915050565b6000819050602082019050919050565b6123cf81611d59565b82525050565b60006123e183836123c6565b60208301905092915050565b6000602082019050919050565b60006124058261239a565b61240f81856123a5565b935061241a836123b6565b8060005b8381101561244b57815161243288826123d5565b975061243d836123ed565b92505060018101905061241e565b5085935050505092915050565b6000602082019050818103600083015261247281846123fa565b905092915050565b600067ffffffffffffffff82111561249557612494611f98565b5b61249e82611f27565b9050602081019050919050565b60006124be6124b98461247a565b611ff8565b9050828152602081018484840111156124da576124d96120db565b5b6124e5848285612111565b509392505050565b600082601f83011261250257612501611f93565b5b81356125128482602086016124ab565b91505092915050565b6000806040838503121561253257612531611cf1565b5b600061254085828601611d7a565b925050602083013567ffffffffffffffff81111561256157612560611cf6565b5b61256d858286016124ed565b9150509250929050565b61258081611d1b565b82525050565b600060208201905061259b6000830184612577565b92915050565b6125aa81611e7e565b81146125b557600080fd5b50565b6000813590506125c7816125a1565b92915050565b600080604083850312156125e4576125e3611cf1565b5b60006125f285828601611d44565b9250506020612603858286016125b8565b9150509250929050565b6000806040838503121561262457612623611cf1565b5b600061263285828601611d44565b925050602061264385828601611d44565b9150509250929050565b600080600080600060a0868803121561266957612668611cf1565b5b600061267788828901611d44565b955050602061268888828901611d44565b945050604061269988828901611d7a565b93505060606126aa88828901611d7a565b925050608086013567ffffffffffffffff8111156126cb576126ca611cf6565b5b6126d788828901612162565b9150509295509295909350565b6000602082840312156126fa576126f9611cf1565b5b600061270884828501611d44565b91505092915050565b7f455243313135353a2061646472657373207a65726f206973206e6f742061207660008201527f616c6964206f776e657200000000000000000000000000000000000000000000602082015250565b600061276d602a83611eec565b915061277882612711565b604082019050919050565b6000602082019050818103600083015261279c81612760565b9050919050565b7f4e487b7100000000000000000000000000000000000000000000000000000000600052602260045260246000fd5b600060028204905060018216806127ea57607f821691505b6020821081036127fd576127fc6127a3565b5b50919050565b7f455243313135353a2063616c6c6572206973206e6f7420746f6b656e206f776e60008201527f6572206f7220617070726f766564000000000000000000000000000000000000602082015250565b600061285f602e83611eec565b915061286a82612803565b604082019050919050565b6000602082019050818103600083015261288e81612852565b9050919050565b7f455243313135353a206163636f756e747320616e6420696473206c656e67746860008201527f206d69736d617463680000000000000000000000000000000000000000000000602082015250565b60006128f1602983611eec565b91506128fc82612895565b604082019050919050565b60006020820190508181036000830152612920816128e4565b9050919050565b7f4e487b7100000000000000000000000000000000000000000000000000000000600052603260045260246000fd5b7f4e487b7100000000000000000000000000000000000000000000000000000000600052601160045260246000fd5b600061299082611d59565b91507fffffffffffffffffffffffffffffffffffffffffffffffffffffffffffffffff82036129c2576129c1612956565b5b600182019050919050565b60006129d882611d59565b91506129e383611d59565b92508282026129f181611d59565b91508282048414831517612a0857612a07612956565b5b5092915050565b7f496e73756666696369656e742066756e64730000000000000000000000000000600082015250565b6000612a45601283611eec565b9150612a5082612a0f565b602082019050919050565b60006020820190508181036000830152612a7481612a38565b9050919050565b7f4f776e61626c653a206e6577206f776e657220697320746865207a65726f206160008201527f6464726573730000000000000000000000000000000000000000000000000000602082015250565b6000612ad7602683611eec565b9150612ae282612a7b565b604082019050919050565b60006020820190508181036000830152612b0681612aca565b9050919050565b7f455243313135353a2069647320616e6420616d6f756e7473206c656e6774682060008201527f6d69736d61746368000000000000000000000000000000000000000000000000602082015250565b6000612b69602883611eec565b9150612b7482612b0d565b604082019050919050565b60006020820190508181036000830152612b9881612b5c565b9050919050565b7f455243313135353a207472616e7366657220746f20746865207a65726f20616460008201527f6472657373000000000000000000000000000000000000000000000000000000602082015250565b6000612bfb602583611eec565b9150612c0682612b9f565b604082019050919050565b60006020820190508181036000830152612c2a81612bee565b9050919050565b7f455243313135353a20696e73756666696369656e742062616c616e636520666f60008201527f72207472616e7366657200000000000000000000000000000000000000000000602082015250565b6000612c8d602a83611eec565b9150612c9882612c31565b604082019050919050565b60006020820190508181036000830152612cbc81612c80565b9050919050565b6000612cce82611d59565b9150612cd983611d59565b9250828201905080821115612cf157612cf0612956565b5b92915050565b60006040820190508181036000830152612d1181856123fa565b90508181036020830152612d2581846123fa565b90509392505050565b7f4f776e61626c653a2063616c6c6572206973206e6f7420746865206f776e6572600082015250565b6000612d64602083611eec565b9150612d6f82612d2e565b602082019050919050565b60006020820190508181036000830152612d9381612d57565b9050919050565b7f455243313135353a206d696e7420746f20746865207a65726f2061646472657360008201527f7300000000000000000000000000000000000000000000000000000000000000602082015250565b6000612df6602183611eec565b9150612e0182612d9a565b604082019050919050565b60006020820190508181036000830152612e2581612de9565b9050919050565b6000604082019050612e416000830185611dcf565b612e4e6020830184611dcf565b9392505050565b7f455243313135353a2073657474696e6720617070726f76616c2073746174757360008201527f20666f722073656c660000000000000000000000000000000000000000000000602082015250565b6000612eb1602983611eec565b9150612ebc82612e55565b604082019050919050565b60006020820190508181036000830152612ee081612ea4565b9050919050565b600081519050919050565b600082825260208201905092915050565b6000612f0e82612ee7565b612f188185612ef2565b9350612f28818560208601611efd565b612f3181611f27565b840191505092915050565b600060a082019050612f516000830188612577565b612f5e6020830187612577565b8181036040830152612f7081866123fa565b90508181036060830152612f8481856123fa565b90508181036080830152612f988184612f03565b90509695505050505050565b600081519050612fb381611e25565b92915050565b600060208284031215612fcf57612fce611cf1565b5b6000612fdd84828501612fa4565b91505092915050565b60008160e01c9050919050565b600060033d11156130125760046000803e61300f600051612fe6565b90505b90565b600060443d106130a257613027611ce7565b60043d036004823e80513d602482011167ffffffffffffffff8211171561304f5750506130a2565b808201805167ffffffffffffffff81111561306d57505050506130a2565b80602083010160043d03850181111561308a5750505050506130a2565b61309982602001850186611fc7565b82955050505050505b90565b7f455243313135353a207472616e7366657220746f206e6f6e2d4552433131353560008201527f526563656976657220696d706c656d656e746572000000000000000000000000602082015250565b6000613101603483611eec565b915061310c826130a5565b604082019050919050565b60006020820190508181036000830152613130816130f4565b9050919050565b7f455243313135353a204552433131353552656365697665722072656a6563746560008201527f6420746f6b656e73000000000000000000000000000000000000000000000000602082015250565b6000613193602883611eec565b915061319e82613137565b604082019050919050565b600060208201905081810360008301526131c281613186565b9050919050565b600060a0820190506131de6000830188612577565b6131eb6020830187612577565b6131f86040830186611dcf565b6132056060830185611dcf565b81810360808301526132178184612f03565b90509695505050505050565b7f455243313135353a206275726e20616d6f756e74206578636565647320746f7460008201527f616c537570706c79000000000000000000000000000000000000000000000000602082015250565b600061327f602883611eec565b915061328a82613223565b604082019050919050565b600060208201905081810360008301526132ae81613272565b905091905056fea26469706673582212202cff66419edf42a71cba8b72f4a56c084201258d01bec969dd54656e0e46653364736f6c63430008110033","opcodes":"PUSH1 0x80 PUSH1 0x40 MSTORE PUSH7 0x2386F26FC10000 PUSH1 0x5 SSTORE PUSH1 0x0 PUSH1 0x6 SSTORE CALLVALUE DUP1 ISZERO PUSH3 0x21 JUMPI PUSH1 0x0 DUP1 REVERT JUMPDEST POP PUSH1 0x40 MLOAD DUP1 PUSH1 0x20 ADD PUSH1 0x40 MSTORE DUP1 PUSH1 0x0 DUP2 MSTORE POP PUSH3 0x43 DUP2 PUSH3 0x6A PUSH1 0x20 SHL PUSH1 0x20 SHR JUMP JUMPDEST POP PUSH3 0x64 PUSH3 0x58 PUSH3 0x7F PUSH1 0x20 SHL PUSH1 0x20 SHR JUMP JUMPDEST PUSH3 0x87 PUSH1 0x20 SHL PUSH1 0x20 SHR JUMP JUMPDEST PUSH3 0x4AE JUMP JUMPDEST DUP1 PUSH1 0x2 SWAP1 DUP2 PUSH3 0x7B SWAP2 SWAP1 PUSH3 0x3C7 JUMP JUMPDEST POP POP JUMP JUMPDEST PUSH1 0x0 CALLER SWAP1 POP SWAP1 JUMP JUMPDEST PUSH1 0x0 PUSH1 0x3 PUSH1 0x0 SWAP1 SLOAD SWAP1 PUSH2 0x100 EXP SWAP1 DIV PUSH20 0xFFFFFFFFFFFFFFFFFFFFFFFFFFFFFFFFFFFFFFFF AND SWAP1 POP DUP2 PUSH1 0x3 PUSH1 0x0 PUSH2 0x100 EXP DUP2 SLOAD DUP2 PUSH20 0xFFFFFFFFFFFFFFFFFFFFFFFFFFFFFFFFFFFFFFFF MUL NOT AND SWAP1 DUP4 PUSH20 0xFFFFFFFFFFFFFFFFFFFFFFFFFFFFFFFFFFFFFFFF AND MUL OR SWAP1 SSTORE POP DUP2 PUSH20 0xFFFFFFFFFFFFFFFFFFFFFFFFFFFFFFFFFFFFFFFF AND DUP2 PUSH20 0xFFFFFFFFFFFFFFFFFFFFFFFFFFFFFFFFFFFFFFFF AND PUSH32 0x8BE0079C531659141344CD1FD0A4F28419497F9722A3DAAFE3B4186F6B6457E0 PUSH1 0x40 MLOAD PUSH1 0x40 MLOAD DUP1 SWAP2 SUB SWAP1 LOG3 POP POP JUMP JUMPDEST PUSH1 0x0 DUP2 MLOAD SWAP1 POP SWAP2 SWAP1 POP JUMP JUMPDEST PUSH32 0x4E487B7100000000000000000000000000000000000000000000000000000000 PUSH1 0x0 MSTORE PUSH1 0x41 PUSH1 0x4 MSTORE PUSH1 0x24 PUSH1 0x0 REVERT JUMPDEST PUSH32 0x4E487B7100000000000000000000000000000000000000000000000000000000 PUSH1 0x0 MSTORE PUSH1 0x22 PUSH1 0x4 MSTORE PUSH1 0x24 PUSH1 0x0 REVERT JUMPDEST PUSH1 0x0 PUSH1 0x2 DUP3 DIV SWAP1 POP PUSH1 0x1 DUP3 AND DUP1 PUSH3 0x1CF JUMPI PUSH1 0x7F DUP3 AND SWAP2 POP JUMPDEST PUSH1 0x20 DUP3 LT DUP2 SUB PUSH3 0x1E5 JUMPI PUSH3 0x1E4 PUSH3 0x187 JUMP JUMPDEST JUMPDEST POP SWAP2 SWAP1 POP JUMP JUMPDEST PUSH1 0x0 DUP2 SWAP1 POP DUP2 PUSH1 0x0 MSTORE PUSH1 0x20 PUSH1 0x0 KECCAK256 SWAP1 POP SWAP2 SWAP1 POP JUMP JUMPDEST PUSH1 0x0 PUSH1 0x20 PUSH1 0x1F DUP4 ADD DIV SWAP1 POP SWAP2 SWAP1 POP JUMP JUMPDEST PUSH1 0x0 DUP3 DUP3 SHL SWAP1 POP SWAP3 SWAP2 POP POP JUMP JUMPDEST PUSH1 0x0 PUSH1 0x8 DUP4 MUL PUSH3 0x24F PUSH32 0xFFFFFFFFFFFFFFFFFFFFFFFFFFFFFFFFFFFFFFFFFFFFFFFFFFFFFFFFFFFFFFFF DUP3 PUSH3 0x210 JUMP JUMPDEST PUSH3 0x25B DUP7 DUP4 PUSH3 0x210 JUMP JUMPDEST SWAP6 POP DUP1 NOT DUP5 AND SWAP4 POP DUP1 DUP7 AND DUP5 OR SWAP3 POP POP POP SWAP4 SWAP3 POP POP POP JUMP JUMPDEST PUSH1 0x0 DUP2 SWAP1 POP SWAP2 SWAP1 POP JUMP JUMPDEST PUSH1 0x0 DUP2 SWAP1 POP SWAP2 SWAP1 POP JUMP JUMPDEST PUSH1 0x0 PUSH3 0x2A8 PUSH3 0x2A2 PUSH3 0x29C DUP5 PUSH3 0x273 JUMP JUMPDEST PUSH3 0x27D JUMP JUMPDEST PUSH3 0x273 JUMP JUMPDEST SWAP1 POP SWAP2 SWAP1 POP JUMP JUMPDEST PUSH1 0x0 DUP2 SWAP1 POP SWAP2 SWAP1 POP JUMP JUMPDEST PUSH3 0x2C4 DUP4 PUSH3 0x287 JUMP JUMPDEST PUSH3 0x2DC PUSH3 0x2D3 DUP3 PUSH3 0x2AF JUMP JUMPDEST DUP5 DUP5 SLOAD PUSH3 0x21D JUMP JUMPDEST DUP3 SSTORE POP POP POP POP JUMP JUMPDEST PUSH1 0x0 SWAP1 JUMP JUMPDEST PUSH3 0x2F3 PUSH3 0x2E4 JUMP JUMPDEST PUSH3 0x300 DUP2 DUP5 DUP5 PUSH3 0x2B9 JUMP JUMPDEST POP POP POP JUMP JUMPDEST JUMPDEST DUP2 DUP2 LT ISZERO PUSH3 0x328 JUMPI PUSH3 0x31C PUSH1 0x0 DUP3 PUSH3 0x2E9 JUMP JUMPDEST PUSH1 0x1 DUP2 ADD SWAP1 POP PUSH3 0x306 JUMP JUMPDEST POP POP JUMP JUMPDEST PUSH1 0x1F DUP3 GT ISZERO PUSH3 0x377 JUMPI PUSH3 0x341 DUP2 PUSH3 0x1EB JUMP JUMPDEST PUSH3 0x34C DUP5 PUSH3 0x200 JUMP JUMPDEST DUP2 ADD PUSH1 0x20 DUP6 LT ISZERO PUSH3 0x35C JUMPI DUP2 SWAP1 POP JUMPDEST PUSH3 0x374 PUSH3 0x36B DUP6 PUSH3 0x200 JUMP JUMPDEST DUP4 ADD DUP3 PUSH3 0x305 JUMP JUMPDEST POP POP JUMPDEST POP POP POP JUMP JUMPDEST PUSH1 0x0 DUP3 DUP3 SHR SWAP1 POP SWAP3 SWAP2 POP POP JUMP JUMPDEST PUSH1 0x0 PUSH3 0x39C PUSH1 0x0 NOT DUP5 PUSH1 0x8 MUL PUSH3 0x37C JUMP JUMPDEST NOT DUP1 DUP4 AND SWAP2 POP POP SWAP3 SWAP2 POP POP JUMP JUMPDEST PUSH1 0x0 PUSH3 0x3B7 DUP4 DUP4 PUSH3 0x389 JUMP JUMPDEST SWAP2 POP DUP3 PUSH1 0x2 MUL DUP3 OR SWAP1 POP SWAP3 SWAP2 POP POP JUMP JUMPDEST PUSH3 0x3D2 DUP3 PUSH3 0x14D JUMP JUMPDEST PUSH8 0xFFFFFFFFFFFFFFFF DUP2 GT ISZERO PUSH3 0x3EE JUMPI PUSH3 0x3ED PUSH3 0x158 JUMP JUMPDEST JUMPDEST PUSH3 0x3FA DUP3 SLOAD PUSH3 0x1B6 JUMP JUMPDEST PUSH3 0x407 DUP3 DUP3 DUP6 PUSH3 0x32C JUMP JUMPDEST PUSH1 0x0 PUSH1 0x20 SWAP1 POP PUSH1 0x1F DUP4 GT PUSH1 0x1 DUP2 EQ PUSH3 0x43F JUMPI PUSH1 0x0 DUP5 ISZERO PUSH3 0x42A JUMPI DUP3 DUP8 ADD MLOAD SWAP1 POP JUMPDEST PUSH3 0x436 DUP6 DUP3 PUSH3 0x3A9 JUMP JUMPDEST DUP7 SSTORE POP PUSH3 0x4A6 JUMP JUMPDEST PUSH1 0x1F NOT DUP5 AND PUSH3 0x44F DUP7 PUSH3 0x1EB JUMP JUMPDEST PUSH1 0x0 JUMPDEST DUP3 DUP2 LT ISZERO PUSH3 0x479 JUMPI DUP5 DUP10 ADD MLOAD DUP3 SSTORE PUSH1 0x1 DUP3 ADD SWAP2 POP PUSH1 0x20 DUP6 ADD SWAP5 POP PUSH1 0x20 DUP2 ADD SWAP1 POP PUSH3 0x452 JUMP JUMPDEST DUP7 DUP4 LT ISZERO PUSH3 0x499 JUMPI DUP5 DUP10 ADD MLOAD PUSH3 0x495 PUSH1 0x1F DUP10 AND DUP3 PUSH3 0x389 JUMP JUMPDEST DUP4 SSTORE POP JUMPDEST PUSH1 0x1 PUSH1 0x2 DUP9 MUL ADD DUP9 SSTORE POP POP POP JUMPDEST POP POP POP POP POP POP JUMP JUMPDEST PUSH2 0x32EB DUP1 PUSH3 0x4BE PUSH1 0x0 CODECOPY PUSH1 0x0 RETURN INVALID PUSH1 0x80 PUSH1 0x40 MSTORE PUSH1 0x4 CALLDATASIZE LT PUSH2 0x108 JUMPI PUSH1 0x0 CALLDATALOAD PUSH1 0xE0 SHR DUP1 PUSH4 0x715018A6 GT PUSH2 0x95 JUMPI DUP1 PUSH4 0xBD85B039 GT PUSH2 0x64 JUMPI DUP1 PUSH4 0xBD85B039 EQ PUSH2 0x359 JUMPI DUP1 PUSH4 0xDBFD4B98 EQ PUSH2 0x396 JUMPI DUP1 PUSH4 0xE985E9C5 EQ PUSH2 0x3C1 JUMPI DUP1 PUSH4 0xF242432A EQ PUSH2 0x3FE JUMPI DUP1 PUSH4 0xF2FDE38B EQ PUSH2 0x427 JUMPI PUSH2 0x108 JUMP JUMPDEST DUP1 PUSH4 0x715018A6 EQ PUSH2 0x2D2 JUMPI DUP1 PUSH4 0x77097FC8 EQ PUSH2 0x2E9 JUMPI DUP1 PUSH4 0x8DA5CB5B EQ PUSH2 0x305 JUMPI DUP1 PUSH4 0xA22CB465 EQ PUSH2 0x330 JUMPI PUSH2 0x108 JUMP JUMPDEST DUP1 PUSH4 0x2EB2C2D6 GT PUSH2 0xDC JUMPI DUP1 PUSH4 0x2EB2C2D6 EQ PUSH2 0x1EF JUMPI DUP1 PUSH4 0x3CCFD60B EQ PUSH2 0x218 JUMPI DUP1 PUSH4 0x44A0D68A EQ PUSH2 0x22F JUMPI DUP1 PUSH4 0x4E1273F4 EQ PUSH2 0x258 JUMPI DUP1 PUSH4 0x4F558E79 EQ PUSH2 0x295 JUMPI PUSH2 0x108 JUMP JUMPDEST DUP1 PUSH3 0xFDD58E EQ PUSH2 0x10D JUMPI DUP1 PUSH4 0x1FFC9A7 EQ PUSH2 0x14A JUMPI DUP1 PUSH4 0xE89341C EQ PUSH2 0x187 JUMPI DUP1 PUSH4 0x13FAEDE6 EQ PUSH2 0x1C4 JUMPI JUMPDEST PUSH1 0x0 DUP1 REVERT JUMPDEST CALLVALUE DUP1 ISZERO PUSH2 0x119 JUMPI PUSH1 0x0 DUP1 REVERT JUMPDEST POP PUSH2 0x134 PUSH1 0x4 DUP1 CALLDATASIZE SUB DUP2 ADD SWAP1 PUSH2 0x12F SWAP2 SWAP1 PUSH2 0x1D8F JUMP JUMPDEST PUSH2 0x450 JUMP JUMPDEST PUSH1 0x40 MLOAD PUSH2 0x141 SWAP2 SWAP1 PUSH2 0x1DDE JUMP JUMPDEST PUSH1 0x40 MLOAD DUP1 SWAP2 SUB SWAP1 RETURN JUMPDEST CALLVALUE DUP1 ISZERO PUSH2 0x156 JUMPI PUSH1 0x0 DUP1 REVERT JUMPDEST POP PUSH2 0x171 PUSH1 0x4 DUP1 CALLDATASIZE SUB DUP2 ADD SWAP1 PUSH2 0x16C SWAP2 SWAP1 PUSH2 0x1E51 JUMP JUMPDEST PUSH2 0x518 JUMP JUMPDEST PUSH1 0x40 MLOAD PUSH2 0x17E SWAP2 SWAP1 PUSH2 0x1E99 JUMP JUMPDEST PUSH1 0x40 MLOAD DUP1 SWAP2 SUB SWAP1 RETURN JUMPDEST CALLVALUE DUP1 ISZERO PUSH2 0x193 JUMPI PUSH1 0x0 DUP1 REVERT JUMPDEST POP PUSH2 0x1AE PUSH1 0x4 DUP1 CALLDATASIZE SUB DUP2 ADD SWAP1 PUSH2 0x1A9 SWAP2 SWAP1 PUSH2 0x1EB4 JUMP JUMPDEST PUSH2 0x52A JUMP JUMPDEST PUSH1 0x40 MLOAD PUSH2 0x1BB SWAP2 SWAP1 PUSH2 0x1F71 JUMP JUMPDEST PUSH1 0x40 MLOAD DUP1 SWAP2 SUB SWAP1 RETURN JUMPDEST CALLVALUE DUP1 ISZERO PUSH2 0x1D0 JUMPI PUSH1 0x0 DUP1 REVERT JUMPDEST POP PUSH2 0x1D9 PUSH2 0x5BE JUMP JUMPDEST PUSH1 0x40 MLOAD PUSH2 0x1E6 SWAP2 SWAP1 PUSH2 0x1DDE JUMP JUMPDEST PUSH1 0x40 MLOAD DUP1 SWAP2 SUB SWAP1 RETURN JUMPDEST CALLVALUE DUP1 ISZERO PUSH2 0x1FB JUMPI PUSH1 0x0 DUP1 REVERT JUMPDEST POP PUSH2 0x216 PUSH1 0x4 DUP1 CALLDATASIZE SUB DUP2 ADD SWAP1 PUSH2 0x211 SWAP2 SWAP1 PUSH2 0x2190 JUMP JUMPDEST PUSH2 0x5C4 JUMP JUMPDEST STOP JUMPDEST CALLVALUE DUP1 ISZERO PUSH2 0x224 JUMPI PUSH1 0x0 DUP1 REVERT JUMPDEST POP PUSH2 0x22D PUSH2 0x665 JUMP JUMPDEST STOP JUMPDEST CALLVALUE DUP1 ISZERO PUSH2 0x23B JUMPI PUSH1 0x0 DUP1 REVERT JUMPDEST POP PUSH2 0x256 PUSH1 0x4 DUP1 CALLDATASIZE SUB DUP2 ADD SWAP1 PUSH2 0x251 SWAP2 SWAP1 PUSH2 0x1EB4 JUMP JUMPDEST PUSH2 0x6BD JUMP JUMPDEST STOP JUMPDEST CALLVALUE DUP1 ISZERO PUSH2 0x264 JUMPI PUSH1 0x0 DUP1 REVERT JUMPDEST POP PUSH2 0x27F PUSH1 0x4 DUP1 CALLDATASIZE SUB DUP2 ADD SWAP1 PUSH2 0x27A SWAP2 SWAP1 PUSH2 0x2322 JUMP JUMPDEST PUSH2 0x6CF JUMP JUMPDEST PUSH1 0x40 MLOAD PUSH2 0x28C SWAP2 SWAP1 PUSH2 0x2458 JUMP JUMPDEST PUSH1 0x40 MLOAD DUP1 SWAP2 SUB SWAP1 RETURN JUMPDEST CALLVALUE DUP1 ISZERO PUSH2 0x2A1 JUMPI PUSH1 0x0 DUP1 REVERT JUMPDEST POP PUSH2 0x2BC PUSH1 0x4 DUP1 CALLDATASIZE SUB DUP2 ADD SWAP1 PUSH2 0x2B7 SWAP2 SWAP1 PUSH2 0x1EB4 JUMP JUMPDEST PUSH2 0x7E8 JUMP JUMPDEST PUSH1 0x40 MLOAD PUSH2 0x2C9 SWAP2 SWAP1 PUSH2 0x1E99 JUMP JUMPDEST PUSH1 0x40 MLOAD DUP1 SWAP2 SUB SWAP1 RETURN JUMPDEST CALLVALUE DUP1 ISZERO PUSH2 0x2DE JUMPI PUSH1 0x0 DUP1 REVERT JUMPDEST POP PUSH2 0x2E7 PUSH2 0x7FC JUMP JUMPDEST STOP JUMPDEST PUSH2 0x303 PUSH1 0x4 DUP1 CALLDATASIZE SUB DUP2 ADD SWAP1 PUSH2 0x2FE SWAP2 SWAP1 PUSH2 0x251B JUMP JUMPDEST PUSH2 0x810 JUMP JUMPDEST STOP JUMPDEST CALLVALUE DUP1 ISZERO PUSH2 0x311 JUMPI PUSH1 0x0 DUP1 REVERT JUMPDEST POP PUSH2 0x31A PUSH2 0x8C9 JUMP JUMPDEST PUSH1 0x40 MLOAD PUSH2 0x327 SWAP2 SWAP1 PUSH2 0x2586 JUMP JUMPDEST PUSH1 0x40 MLOAD DUP1 SWAP2 SUB SWAP1 RETURN JUMPDEST CALLVALUE DUP1 ISZERO PUSH2 0x33C JUMPI PUSH1 0x0 DUP1 REVERT JUMPDEST POP PUSH2 0x357 PUSH1 0x4 DUP1 CALLDATASIZE SUB DUP2 ADD SWAP1 PUSH2 0x352 SWAP2 SWAP1 PUSH2 0x25CD JUMP JUMPDEST PUSH2 0x8F3 JUMP JUMPDEST STOP JUMPDEST CALLVALUE DUP1 ISZERO PUSH2 0x365 JUMPI PUSH1 0x0 DUP1 REVERT JUMPDEST POP PUSH2 0x380 PUSH1 0x4 DUP1 CALLDATASIZE SUB DUP2 ADD SWAP1 PUSH2 0x37B SWAP2 SWAP1 PUSH2 0x1EB4 JUMP JUMPDEST PUSH2 0x909 JUMP JUMPDEST PUSH1 0x40 MLOAD PUSH2 0x38D SWAP2 SWAP1 PUSH2 0x1DDE JUMP JUMPDEST PUSH1 0x40 MLOAD DUP1 SWAP2 SUB SWAP1 RETURN JUMPDEST CALLVALUE DUP1 ISZERO PUSH2 0x3A2 JUMPI PUSH1 0x0 DUP1 REVERT JUMPDEST POP PUSH2 0x3AB PUSH2 0x91B JUMP JUMPDEST PUSH1 0x40 MLOAD PUSH2 0x3B8 SWAP2 SWAP1 PUSH2 0x1DDE JUMP JUMPDEST PUSH1 0x40 MLOAD DUP1 SWAP2 SUB SWAP1 RETURN JUMPDEST CALLVALUE DUP1 ISZERO PUSH2 0x3CD JUMPI PUSH1 0x0 DUP1 REVERT JUMPDEST POP PUSH2 0x3E8 PUSH1 0x4 DUP1 CALLDATASIZE SUB DUP2 ADD SWAP1 PUSH2 0x3E3 SWAP2 SWAP1 PUSH2 0x260D JUMP JUMPDEST PUSH2 0x925 JUMP JUMPDEST PUSH1 0x40 MLOAD PUSH2 0x3F5 SWAP2 SWAP1 PUSH2 0x1E99 JUMP JUMPDEST PUSH1 0x40 MLOAD DUP1 SWAP2 SUB SWAP1 RETURN JUMPDEST CALLVALUE DUP1 ISZERO PUSH2 0x40A JUMPI PUSH1 0x0 DUP1 REVERT JUMPDEST POP PUSH2 0x425 PUSH1 0x4 DUP1 CALLDATASIZE SUB DUP2 ADD SWAP1 PUSH2 0x420 SWAP2 SWAP1 PUSH2 0x264D JUMP JUMPDEST PUSH2 0x9B9 JUMP JUMPDEST STOP JUMPDEST CALLVALUE DUP1 ISZERO PUSH2 0x433 JUMPI PUSH1 0x0 DUP1 REVERT JUMPDEST POP PUSH2 0x44E PUSH1 0x4 DUP1 CALLDATASIZE SUB DUP2 ADD SWAP1 PUSH2 0x449 SWAP2 SWAP1 PUSH2 0x26E4 JUMP JUMPDEST PUSH2 0xA5A JUMP JUMPDEST STOP JUMPDEST PUSH1 0x0 DUP1 PUSH20 0xFFFFFFFFFFFFFFFFFFFFFFFFFFFFFFFFFFFFFFFF AND DUP4 PUSH20 0xFFFFFFFFFFFFFFFFFFFFFFFFFFFFFFFFFFFFFFFF AND SUB PUSH2 0x4C0 JUMPI PUSH1 0x40 MLOAD PUSH32 0x8C379A000000000000000000000000000000000000000000000000000000000 DUP2 MSTORE PUSH1 0x4 ADD PUSH2 0x4B7 SWAP1 PUSH2 0x2783 JUMP JUMPDEST PUSH1 0x40 MLOAD DUP1 SWAP2 SUB SWAP1 REVERT JUMPDEST PUSH1 0x0 DUP1 DUP4 DUP2 MSTORE PUSH1 0x20 ADD SWAP1 DUP2 MSTORE PUSH1 0x20 ADD PUSH1 0x0 KECCAK256 PUSH1 0x0 DUP5 PUSH20 0xFFFFFFFFFFFFFFFFFFFFFFFFFFFFFFFFFFFFFFFF AND PUSH20 0xFFFFFFFFFFFFFFFFFFFFFFFFFFFFFFFFFFFFFFFF AND DUP2 MSTORE PUSH1 0x20 ADD SWAP1 DUP2 MSTORE PUSH1 0x20 ADD PUSH1 0x0 KECCAK256 SLOAD SWAP1 POP SWAP3 SWAP2 POP POP JUMP JUMPDEST PUSH1 0x0 PUSH2 0x523 DUP3 PUSH2 0xADD JUMP JUMPDEST SWAP1 POP SWAP2 SWAP1 POP JUMP JUMPDEST PUSH1 0x60 PUSH1 0x2 DUP1 SLOAD PUSH2 0x539 SWAP1 PUSH2 0x27D2 JUMP JUMPDEST DUP1 PUSH1 0x1F ADD PUSH1 0x20 DUP1 SWAP2 DIV MUL PUSH1 0x20 ADD PUSH1 0x40 MLOAD SWAP1 DUP2 ADD PUSH1 0x40 MSTORE DUP1 SWAP3 SWAP2 SWAP1 DUP2 DUP2 MSTORE PUSH1 0x20 ADD DUP3 DUP1 SLOAD PUSH2 0x565 SWAP1 PUSH2 0x27D2 JUMP JUMPDEST DUP1 ISZERO PUSH2 0x5B2 JUMPI DUP1 PUSH1 0x1F LT PUSH2 0x587 JUMPI PUSH2 0x100 DUP1 DUP4 SLOAD DIV MUL DUP4 MSTORE SWAP2 PUSH1 0x20 ADD SWAP2 PUSH2 0x5B2 JUMP JUMPDEST DUP3 ADD SWAP2 SWAP1 PUSH1 0x0 MSTORE PUSH1 0x20 PUSH1 0x0 KECCAK256 SWAP1 JUMPDEST DUP2 SLOAD DUP2 MSTORE SWAP1 PUSH1 0x1 ADD SWAP1 PUSH1 0x20 ADD DUP1 DUP4 GT PUSH2 0x595 JUMPI DUP3 SWAP1 SUB PUSH1 0x1F AND DUP3 ADD SWAP2 JUMPDEST POP POP POP POP POP SWAP1 POP SWAP2 SWAP1 POP JUMP JUMPDEST PUSH1 0x5 SLOAD DUP2 JUMP JUMPDEST PUSH2 0x5CC PUSH2 0xBBF JUMP JUMPDEST PUSH20 0xFFFFFFFFFFFFFFFFFFFFFFFFFFFFFFFFFFFFFFFF AND DUP6 PUSH20 0xFFFFFFFFFFFFFFFFFFFFFFFFFFFFFFFFFFFFFFFF AND EQ DUP1 PUSH2 0x612 JUMPI POP PUSH2 0x611 DUP6 PUSH2 0x60C PUSH2 0xBBF JUMP JUMPDEST PUSH2 0x925 JUMP JUMPDEST JUMPDEST PUSH2 0x651 JUMPI PUSH1 0x40 MLOAD PUSH32 0x8C379A000000000000000000000000000000000000000000000000000000000 DUP2 MSTORE PUSH1 0x4 ADD PUSH2 0x648 SWAP1 PUSH2 0x2875 JUMP JUMPDEST PUSH1 0x40 MLOAD DUP1 SWAP2 SUB SWAP1 REVERT JUMPDEST PUSH2 0x65E DUP6 DUP6 DUP6 DUP6 DUP6 PUSH2 0xBC7 JUMP JUMPDEST POP POP POP POP POP JUMP JUMPDEST PUSH2 0x66D PUSH2 0xEE8 JUMP JUMPDEST PUSH2 0x675 PUSH2 0x8C9 JUMP JUMPDEST PUSH20 0xFFFFFFFFFFFFFFFFFFFFFFFFFFFFFFFFFFFFFFFF AND PUSH2 0x8FC SELFBALANCE SWAP1 DUP2 ISZERO MUL SWAP1 PUSH1 0x40 MLOAD PUSH1 0x0 PUSH1 0x40 MLOAD DUP1 DUP4 SUB DUP2 DUP6 DUP9 DUP9 CALL SWAP4 POP POP POP POP ISZERO DUP1 ISZERO PUSH2 0x6BA JUMPI RETURNDATASIZE PUSH1 0x0 DUP1 RETURNDATACOPY RETURNDATASIZE PUSH1 0x0 REVERT JUMPDEST POP JUMP JUMPDEST PUSH2 0x6C5 PUSH2 0xEE8 JUMP JUMPDEST DUP1 PUSH1 0x5 DUP2 SWAP1 SSTORE POP POP JUMP JUMPDEST PUSH1 0x60 DUP2 MLOAD DUP4 MLOAD EQ PUSH2 0x715 JUMPI PUSH1 0x40 MLOAD PUSH32 0x8C379A000000000000000000000000000000000000000000000000000000000 DUP2 MSTORE PUSH1 0x4 ADD PUSH2 0x70C SWAP1 PUSH2 0x2907 JUMP JUMPDEST PUSH1 0x40 MLOAD DUP1 SWAP2 SUB SWAP1 REVERT JUMPDEST PUSH1 0x0 DUP4 MLOAD PUSH8 0xFFFFFFFFFFFFFFFF DUP2 GT ISZERO PUSH2 0x732 JUMPI PUSH2 0x731 PUSH2 0x1F98 JUMP JUMPDEST JUMPDEST PUSH1 0x40 MLOAD SWAP1 DUP1 DUP3 MSTORE DUP1 PUSH1 0x20 MUL PUSH1 0x20 ADD DUP3 ADD PUSH1 0x40 MSTORE DUP1 ISZERO PUSH2 0x760 JUMPI DUP2 PUSH1 0x20 ADD PUSH1 0x20 DUP3 MUL DUP1 CALLDATASIZE DUP4 CALLDATACOPY DUP1 DUP3 ADD SWAP2 POP POP SWAP1 POP JUMPDEST POP SWAP1 POP PUSH1 0x0 JUMPDEST DUP5 MLOAD DUP2 LT ISZERO PUSH2 0x7DD JUMPI PUSH2 0x7AD DUP6 DUP3 DUP2 MLOAD DUP2 LT PUSH2 0x785 JUMPI PUSH2 0x784 PUSH2 0x2927 JUMP JUMPDEST JUMPDEST PUSH1 0x20 MUL PUSH1 0x20 ADD ADD MLOAD DUP6 DUP4 DUP2 MLOAD DUP2 LT PUSH2 0x7A0 JUMPI PUSH2 0x79F PUSH2 0x2927 JUMP JUMPDEST JUMPDEST PUSH1 0x20 MUL PUSH1 0x20 ADD ADD MLOAD PUSH2 0x450 JUMP JUMPDEST DUP3 DUP3 DUP2 MLOAD DUP2 LT PUSH2 0x7C0 JUMPI PUSH2 0x7BF PUSH2 0x2927 JUMP JUMPDEST JUMPDEST PUSH1 0x20 MUL PUSH1 0x20 ADD ADD DUP2 DUP2 MSTORE POP POP DUP1 PUSH2 0x7D6 SWAP1 PUSH2 0x2985 JUMP JUMPDEST SWAP1 POP PUSH2 0x766 JUMP JUMPDEST POP DUP1 SWAP2 POP POP SWAP3 SWAP2 POP POP JUMP JUMPDEST PUSH1 0x0 DUP1 PUSH2 0x7F4 DUP4 PUSH2 0xF66 JUMP JUMPDEST GT SWAP1 POP SWAP2 SWAP1 POP JUMP JUMPDEST PUSH2 0x804 PUSH2 0xEE8 JUMP JUMPDEST PUSH2 0x80E PUSH1 0x0 PUSH2 0xF83 JUMP JUMPDEST JUMP JUMPDEST DUP2 PUSH1 0x5 SLOAD PUSH2 0x81E SWAP2 SWAP1 PUSH2 0x29CD JUMP JUMPDEST CALLVALUE LT ISZERO PUSH2 0x860 JUMPI PUSH1 0x40 MLOAD PUSH32 0x8C379A000000000000000000000000000000000000000000000000000000000 DUP2 MSTORE PUSH1 0x4 ADD PUSH2 0x857 SWAP1 PUSH2 0x2A5B JUMP JUMPDEST PUSH1 0x40 MLOAD DUP1 SWAP2 SUB SWAP1 REVERT JUMPDEST PUSH1 0x0 JUMPDEST DUP3 DUP2 LT ISZERO PUSH2 0x8C4 JUMPI PUSH1 0x0 PUSH1 0x6 SLOAD SWAP1 POP PUSH2 0x88E CALLER DUP3 PUSH1 0x1 PUSH1 0x40 MLOAD DUP1 PUSH1 0x20 ADD PUSH1 0x40 MSTORE DUP1 PUSH1 0x0 DUP2 MSTORE POP PUSH2 0x1049 JUMP JUMPDEST PUSH2 0x898 DUP2 DUP5 PUSH2 0x11F9 JUMP JUMPDEST PUSH1 0x6 PUSH1 0x0 DUP2 SLOAD DUP1 SWAP3 SWAP2 SWAP1 PUSH2 0x8AB SWAP1 PUSH2 0x2985 JUMP JUMPDEST SWAP2 SWAP1 POP SSTORE POP POP DUP1 DUP1 PUSH2 0x8BC SWAP1 PUSH2 0x2985 JUMP JUMPDEST SWAP2 POP POP PUSH2 0x863 JUMP JUMPDEST POP POP POP JUMP JUMPDEST PUSH1 0x0 PUSH1 0x3 PUSH1 0x0 SWAP1 SLOAD SWAP1 PUSH2 0x100 EXP SWAP1 DIV PUSH20 0xFFFFFFFFFFFFFFFFFFFFFFFFFFFFFFFFFFFFFFFF AND SWAP1 POP SWAP1 JUMP JUMPDEST PUSH2 0x905 PUSH2 0x8FE PUSH2 0xBBF JUMP JUMPDEST DUP4 DUP4 PUSH2 0x1235 JUMP JUMPDEST POP POP JUMP JUMPDEST PUSH1 0x0 PUSH2 0x914 DUP3 PUSH2 0xF66 JUMP JUMPDEST SWAP1 POP SWAP2 SWAP1 POP JUMP JUMPDEST PUSH1 0x0 PUSH1 0x6 SLOAD SWAP1 POP SWAP1 JUMP JUMPDEST PUSH1 0x0 PUSH1 0x1 PUSH1 0x0 DUP5 PUSH20 0xFFFFFFFFFFFFFFFFFFFFFFFFFFFFFFFFFFFFFFFF AND PUSH20 0xFFFFFFFFFFFFFFFFFFFFFFFFFFFFFFFFFFFFFFFF AND DUP2 MSTORE PUSH1 0x20 ADD SWAP1 DUP2 MSTORE PUSH1 0x20 ADD PUSH1 0x0 KECCAK256 PUSH1 0x0 DUP4 PUSH20 0xFFFFFFFFFFFFFFFFFFFFFFFFFFFFFFFFFFFFFFFF AND PUSH20 0xFFFFFFFFFFFFFFFFFFFFFFFFFFFFFFFFFFFFFFFF AND DUP2 MSTORE PUSH1 0x20 ADD SWAP1 DUP2 MSTORE PUSH1 0x20 ADD PUSH1 0x0 KECCAK256 PUSH1 0x0 SWAP1 SLOAD SWAP1 PUSH2 0x100 EXP SWAP1 DIV PUSH1 0xFF AND SWAP1 POP SWAP3 SWAP2 POP POP JUMP JUMPDEST PUSH2 0x9C1 PUSH2 0xBBF JUMP JUMPDEST PUSH20 0xFFFFFFFFFFFFFFFFFFFFFFFFFFFFFFFFFFFFFFFF AND DUP6 PUSH20 0xFFFFFFFFFFFFFFFFFFFFFFFFFFFFFFFFFFFFFFFF AND EQ DUP1 PUSH2 0xA07 JUMPI POP PUSH2 0xA06 DUP6 PUSH2 0xA01 PUSH2 0xBBF JUMP JUMPDEST PUSH2 0x925 JUMP JUMPDEST JUMPDEST PUSH2 0xA46 JUMPI PUSH1 0x40 MLOAD PUSH32 0x8C379A000000000000000000000000000000000000000000000000000000000 DUP2 MSTORE PUSH1 0x4 ADD PUSH2 0xA3D SWAP1 PUSH2 0x2875 JUMP JUMPDEST PUSH1 0x40 MLOAD DUP1 SWAP2 SUB SWAP1 REVERT JUMPDEST PUSH2 0xA53 DUP6 DUP6 DUP6 DUP6 DUP6 PUSH2 0x13A1 JUMP JUMPDEST POP POP POP POP POP JUMP JUMPDEST PUSH2 0xA62 PUSH2 0xEE8 JUMP JUMPDEST PUSH1 0x0 PUSH20 0xFFFFFFFFFFFFFFFFFFFFFFFFFFFFFFFFFFFFFFFF AND DUP2 PUSH20 0xFFFFFFFFFFFFFFFFFFFFFFFFFFFFFFFFFFFFFFFF AND SUB PUSH2 0xAD1 JUMPI PUSH1 0x40 MLOAD PUSH32 0x8C379A000000000000000000000000000000000000000000000000000000000 DUP2 MSTORE PUSH1 0x4 ADD PUSH2 0xAC8 SWAP1 PUSH2 0x2AED JUMP JUMPDEST PUSH1 0x40 MLOAD DUP1 SWAP2 SUB SWAP1 REVERT JUMPDEST PUSH2 0xADA DUP2 PUSH2 0xF83 JUMP JUMPDEST POP JUMP JUMPDEST PUSH1 0x0 PUSH32 0xD9B67A2600000000000000000000000000000000000000000000000000000000 PUSH28 0xFFFFFFFFFFFFFFFFFFFFFFFFFFFFFFFFFFFFFFFFFFFFFFFFFFFFFFFF NOT AND DUP3 PUSH28 0xFFFFFFFFFFFFFFFFFFFFFFFFFFFFFFFFFFFFFFFFFFFFFFFFFFFFFFFF NOT AND EQ DUP1 PUSH2 0xBA8 JUMPI POP PUSH32 0xE89341C00000000000000000000000000000000000000000000000000000000 PUSH28 0xFFFFFFFFFFFFFFFFFFFFFFFFFFFFFFFFFFFFFFFFFFFFFFFFFFFFFFFF NOT AND DUP3 PUSH28 0xFFFFFFFFFFFFFFFFFFFFFFFFFFFFFFFFFFFFFFFFFFFFFFFFFFFFFFFF NOT AND EQ JUMPDEST DUP1 PUSH2 0xBB8 JUMPI POP PUSH2 0xBB7 DUP3 PUSH2 0x163C JUMP JUMPDEST JUMPDEST SWAP1 POP SWAP2 SWAP1 POP JUMP JUMPDEST PUSH1 0x0 CALLER SWAP1 POP SWAP1 JUMP JUMPDEST DUP2 MLOAD DUP4 MLOAD EQ PUSH2 0xC0B JUMPI PUSH1 0x40 MLOAD PUSH32 0x8C379A000000000000000000000000000000000000000000000000000000000 DUP2 MSTORE PUSH1 0x4 ADD PUSH2 0xC02 SWAP1 PUSH2 0x2B7F JUMP JUMPDEST PUSH1 0x40 MLOAD DUP1 SWAP2 SUB SWAP1 REVERT JUMPDEST PUSH1 0x0 PUSH20 0xFFFFFFFFFFFFFFFFFFFFFFFFFFFFFFFFFFFFFFFF AND DUP5 PUSH20 0xFFFFFFFFFFFFFFFFFFFFFFFFFFFFFFFFFFFFFFFF AND SUB PUSH2 0xC7A JUMPI PUSH1 0x40 MLOAD PUSH32 0x8C379A000000000000000000000000000000000000000000000000000000000 DUP2 MSTORE PUSH1 0x4 ADD PUSH2 0xC71 SWAP1 PUSH2 0x2C11 JUMP JUMPDEST PUSH1 0x40 MLOAD DUP1 SWAP2 SUB SWAP1 REVERT JUMPDEST PUSH1 0x0 PUSH2 0xC84 PUSH2 0xBBF JUMP JUMPDEST SWAP1 POP PUSH2 0xC94 DUP2 DUP8 DUP8 DUP8 DUP8 DUP8 PUSH2 0x16A6 JUMP JUMPDEST PUSH1 0x0 JUMPDEST DUP5 MLOAD DUP2 LT ISZERO PUSH2 0xE45 JUMPI PUSH1 0x0 DUP6 DUP3 DUP2 MLOAD DUP2 LT PUSH2 0xCB5 JUMPI PUSH2 0xCB4 PUSH2 0x2927 JUMP JUMPDEST JUMPDEST PUSH1 0x20 MUL PUSH1 0x20 ADD ADD MLOAD SWAP1 POP PUSH1 0x0 DUP6 DUP4 DUP2 MLOAD DUP2 LT PUSH2 0xCD4 JUMPI PUSH2 0xCD3 PUSH2 0x2927 JUMP JUMPDEST JUMPDEST PUSH1 0x20 MUL PUSH1 0x20 ADD ADD MLOAD SWAP1 POP PUSH1 0x0 DUP1 PUSH1 0x0 DUP5 DUP2 MSTORE PUSH1 0x20 ADD SWAP1 DUP2 MSTORE PUSH1 0x20 ADD PUSH1 0x0 KECCAK256 PUSH1 0x0 DUP12 PUSH20 0xFFFFFFFFFFFFFFFFFFFFFFFFFFFFFFFFFFFFFFFF AND PUSH20 0xFFFFFFFFFFFFFFFFFFFFFFFFFFFFFFFFFFFFFFFF AND DUP2 MSTORE PUSH1 0x20 ADD SWAP1 DUP2 MSTORE PUSH1 0x20 ADD PUSH1 0x0 KECCAK256 SLOAD SWAP1 POP DUP2 DUP2 LT ISZERO PUSH2 0xD75 JUMPI PUSH1 0x40 MLOAD PUSH32 0x8C379A000000000000000000000000000000000000000000000000000000000 DUP2 MSTORE PUSH1 0x4 ADD PUSH2 0xD6C SWAP1 PUSH2 0x2CA3 JUMP JUMPDEST PUSH1 0x40 MLOAD DUP1 SWAP2 SUB SWAP1 REVERT JUMPDEST DUP2 DUP2 SUB PUSH1 0x0 DUP1 DUP6 DUP2 MSTORE PUSH1 0x20 ADD SWAP1 DUP2 MSTORE PUSH1 0x20 ADD PUSH1 0x0 KECCAK256 PUSH1 0x0 DUP13 PUSH20 0xFFFFFFFFFFFFFFFFFFFFFFFFFFFFFFFFFFFFFFFF AND PUSH20 0xFFFFFFFFFFFFFFFFFFFFFFFFFFFFFFFFFFFFFFFF AND DUP2 MSTORE PUSH1 0x20 ADD SWAP1 DUP2 MSTORE PUSH1 0x20 ADD PUSH1 0x0 KECCAK256 DUP2 SWAP1 SSTORE POP DUP2 PUSH1 0x0 DUP1 DUP6 DUP2 MSTORE PUSH1 0x20 ADD SWAP1 DUP2 MSTORE PUSH1 0x20 ADD PUSH1 0x0 KECCAK256 PUSH1 0x0 DUP12 PUSH20 0xFFFFFFFFFFFFFFFFFFFFFFFFFFFFFFFFFFFFFFFF AND PUSH20 0xFFFFFFFFFFFFFFFFFFFFFFFFFFFFFFFFFFFFFFFF AND DUP2 MSTORE PUSH1 0x20 ADD SWAP1 DUP2 MSTORE PUSH1 0x20 ADD PUSH1 0x0 KECCAK256 PUSH1 0x0 DUP3 DUP3 SLOAD PUSH2 0xE2A SWAP2 SWAP1 PUSH2 0x2CC3 JUMP JUMPDEST SWAP3 POP POP DUP2 SWAP1 SSTORE POP POP POP POP DUP1 PUSH2 0xE3E SWAP1 PUSH2 0x2985 JUMP JUMPDEST SWAP1 POP PUSH2 0xC97 JUMP JUMPDEST POP DUP5 PUSH20 0xFFFFFFFFFFFFFFFFFFFFFFFFFFFFFFFFFFFFFFFF AND DUP7 PUSH20 0xFFFFFFFFFFFFFFFFFFFFFFFFFFFFFFFFFFFFFFFF AND DUP3 PUSH20 0xFFFFFFFFFFFFFFFFFFFFFFFFFFFFFFFFFFFFFFFF AND PUSH32 0x4A39DC06D4C0DBC64B70AF90FD698A233A518AA5D07E595D983B8C0526C8F7FB DUP8 DUP8 PUSH1 0x40 MLOAD PUSH2 0xEBC SWAP3 SWAP2 SWAP1 PUSH2 0x2CF7 JUMP JUMPDEST PUSH1 0x40 MLOAD DUP1 SWAP2 SUB SWAP1 LOG4 PUSH2 0xED2 DUP2 DUP8 DUP8 DUP8 DUP8 DUP8 PUSH2 0x16BC JUMP JUMPDEST PUSH2 0xEE0 DUP2 DUP8 DUP8 DUP8 DUP8 DUP8 PUSH2 0x16C4 JUMP JUMPDEST POP POP POP POP POP POP JUMP JUMPDEST PUSH2 0xEF0 PUSH2 0xBBF JUMP JUMPDEST PUSH20 0xFFFFFFFFFFFFFFFFFFFFFFFFFFFFFFFFFFFFFFFF AND PUSH2 0xF0E PUSH2 0x8C9 JUMP JUMPDEST PUSH20 0xFFFFFFFFFFFFFFFFFFFFFFFFFFFFFFFFFFFFFFFF AND EQ PUSH2 0xF64 JUMPI PUSH1 0x40 MLOAD PUSH32 0x8C379A000000000000000000000000000000000000000000000000000000000 DUP2 MSTORE PUSH1 0x4 ADD PUSH2 0xF5B SWAP1 PUSH2 0x2D7A JUMP JUMPDEST PUSH1 0x40 MLOAD DUP1 SWAP2 SUB SWAP1 REVERT JUMPDEST JUMP JUMPDEST PUSH1 0x0 PUSH1 0x4 PUSH1 0x0 DUP4 DUP2 MSTORE PUSH1 0x20 ADD SWAP1 DUP2 MSTORE PUSH1 0x20 ADD PUSH1 0x0 KECCAK256 SLOAD SWAP1 POP SWAP2 SWAP1 POP JUMP JUMPDEST PUSH1 0x0 PUSH1 0x3 PUSH1 0x0 SWAP1 SLOAD SWAP1 PUSH2 0x100 EXP SWAP1 DIV PUSH20 0xFFFFFFFFFFFFFFFFFFFFFFFFFFFFFFFFFFFFFFFF AND SWAP1 POP DUP2 PUSH1 0x3 PUSH1 0x0 PUSH2 0x100 EXP DUP2 SLOAD DUP2 PUSH20 0xFFFFFFFFFFFFFFFFFFFFFFFFFFFFFFFFFFFFFFFF MUL NOT AND SWAP1 DUP4 PUSH20 0xFFFFFFFFFFFFFFFFFFFFFFFFFFFFFFFFFFFFFFFF AND MUL OR SWAP1 SSTORE POP DUP2 PUSH20 0xFFFFFFFFFFFFFFFFFFFFFFFFFFFFFFFFFFFFFFFF AND DUP2 PUSH20 0xFFFFFFFFFFFFFFFFFFFFFFFFFFFFFFFFFFFFFFFF AND PUSH32 0x8BE0079C531659141344CD1FD0A4F28419497F9722A3DAAFE3B4186F6B6457E0 PUSH1 0x40 MLOAD PUSH1 0x40 MLOAD DUP1 SWAP2 SUB SWAP1 LOG3 POP POP JUMP JUMPDEST PUSH1 0x0 PUSH20 0xFFFFFFFFFFFFFFFFFFFFFFFFFFFFFFFFFFFFFFFF AND DUP5 PUSH20 0xFFFFFFFFFFFFFFFFFFFFFFFFFFFFFFFFFFFFFFFF AND SUB PUSH2 0x10B8 JUMPI PUSH1 0x40 MLOAD PUSH32 0x8C379A000000000000000000000000000000000000000000000000000000000 DUP2 MSTORE PUSH1 0x4 ADD PUSH2 0x10AF SWAP1 PUSH2 0x2E0C JUMP JUMPDEST PUSH1 0x40 MLOAD DUP1 SWAP2 SUB SWAP1 REVERT JUMPDEST PUSH1 0x0 PUSH2 0x10C2 PUSH2 0xBBF JUMP JUMPDEST SWAP1 POP PUSH1 0x0 PUSH2 0x10CF DUP6 PUSH2 0x189B JUMP JUMPDEST SWAP1 POP PUSH1 0x0 PUSH2 0x10DC DUP6 PUSH2 0x189B JUMP JUMPDEST SWAP1 POP PUSH2 0x10ED DUP4 PUSH1 0x0 DUP10 DUP6 DUP6 DUP10 PUSH2 0x16A6 JUMP JUMPDEST DUP5 PUSH1 0x0 DUP1 DUP9 DUP2 MSTORE PUSH1 0x20 ADD SWAP1 DUP2 MSTORE PUSH1 0x20 ADD PUSH1 0x0 KECCAK256 PUSH1 0x0 DUP10 PUSH20 0xFFFFFFFFFFFFFFFFFFFFFFFFFFFFFFFFFFFFFFFF AND PUSH20 0xFFFFFFFFFFFFFFFFFFFFFFFFFFFFFFFFFFFFFFFF AND DUP2 MSTORE PUSH1 0x20 ADD SWAP1 DUP2 MSTORE PUSH1 0x20 ADD PUSH1 0x0 KECCAK256 PUSH1 0x0 DUP3 DUP3 SLOAD PUSH2 0x114C SWAP2 SWAP1 PUSH2 0x2CC3 JUMP JUMPDEST SWAP3 POP POP DUP2 SWAP1 SSTORE POP DUP7 PUSH20 0xFFFFFFFFFFFFFFFFFFFFFFFFFFFFFFFFFFFFFFFF AND PUSH1 0x0 PUSH20 0xFFFFFFFFFFFFFFFFFFFFFFFFFFFFFFFFFFFFFFFF AND DUP5 PUSH20 0xFFFFFFFFFFFFFFFFFFFFFFFFFFFFFFFFFFFFFFFF AND PUSH32 0xC3D58168C5AE7397731D063D5BBF3D657854427343F4C083240F7AACAA2D0F62 DUP10 DUP10 PUSH1 0x40 MLOAD PUSH2 0x11CA SWAP3 SWAP2 SWAP1 PUSH2 0x2E2C JUMP JUMPDEST PUSH1 0x40 MLOAD DUP1 SWAP2 SUB SWAP1 LOG4 PUSH2 0x11E1 DUP4 PUSH1 0x0 DUP10 DUP6 DUP6 DUP10 PUSH2 0x16BC JUMP JUMPDEST PUSH2 0x11F0 DUP4 PUSH1 0x0 DUP10 DUP10 DUP10 DUP10 PUSH2 0x1915 JUMP JUMPDEST POP POP POP POP POP POP POP JUMP JUMPDEST DUP2 PUSH32 0x6BB7FF708619BA0610CBA295A58592E0451DEE2622938C8755667688DAF3529B DUP3 PUSH1 0x40 MLOAD PUSH2 0x1229 SWAP2 SWAP1 PUSH2 0x1F71 JUMP JUMPDEST PUSH1 0x40 MLOAD DUP1 SWAP2 SUB SWAP1 LOG2 POP POP JUMP JUMPDEST DUP2 PUSH20 0xFFFFFFFFFFFFFFFFFFFFFFFFFFFFFFFFFFFFFFFF AND DUP4 PUSH20 0xFFFFFFFFFFFFFFFFFFFFFFFFFFFFFFFFFFFFFFFF AND SUB PUSH2 0x12A3 JUMPI PUSH1 0x40 MLOAD PUSH32 0x8C379A000000000000000000000000000000000000000000000000000000000 DUP2 MSTORE PUSH1 0x4 ADD PUSH2 0x129A SWAP1 PUSH2 0x2EC7 JUMP JUMPDEST PUSH1 0x40 MLOAD DUP1 SWAP2 SUB SWAP1 REVERT JUMPDEST DUP1 PUSH1 0x1 PUSH1 0x0 DUP6 PUSH20 0xFFFFFFFFFFFFFFFFFFFFFFFFFFFFFFFFFFFFFFFF AND PUSH20 0xFFFFFFFFFFFFFFFFFFFFFFFFFFFFFFFFFFFFFFFF AND DUP2 MSTORE PUSH1 0x20 ADD SWAP1 DUP2 MSTORE PUSH1 0x20 ADD PUSH1 0x0 KECCAK256 PUSH1 0x0 DUP5 PUSH20 0xFFFFFFFFFFFFFFFFFFFFFFFFFFFFFFFFFFFFFFFF AND PUSH20 0xFFFFFFFFFFFFFFFFFFFFFFFFFFFFFFFFFFFFFFFF AND DUP2 MSTORE PUSH1 0x20 ADD SWAP1 DUP2 MSTORE PUSH1 0x20 ADD PUSH1 0x0 KECCAK256 PUSH1 0x0 PUSH2 0x100 EXP DUP2 SLOAD DUP2 PUSH1 0xFF MUL NOT AND SWAP1 DUP4 ISZERO ISZERO MUL OR SWAP1 SSTORE POP DUP2 PUSH20 0xFFFFFFFFFFFFFFFFFFFFFFFFFFFFFFFFFFFFFFFF AND DUP4 PUSH20 0xFFFFFFFFFFFFFFFFFFFFFFFFFFFFFFFFFFFFFFFF AND PUSH32 0x17307EAB39AB6107E8899845AD3D59BD9653F200F220920489CA2B5937696C31 DUP4 PUSH1 0x40 MLOAD PUSH2 0x1394 SWAP2 SWAP1 PUSH2 0x1E99 JUMP JUMPDEST PUSH1 0x40 MLOAD DUP1 SWAP2 SUB SWAP1 LOG3 POP POP POP JUMP JUMPDEST PUSH1 0x0 PUSH20 0xFFFFFFFFFFFFFFFFFFFFFFFFFFFFFFFFFFFFFFFF AND DUP5 PUSH20 0xFFFFFFFFFFFFFFFFFFFFFFFFFFFFFFFFFFFFFFFF AND SUB PUSH2 0x1410 JUMPI PUSH1 0x40 MLOAD PUSH32 0x8C379A000000000000000000000000000000000000000000000000000000000 DUP2 MSTORE PUSH1 0x4 ADD PUSH2 0x1407 SWAP1 PUSH2 0x2C11 JUMP JUMPDEST PUSH1 0x40 MLOAD DUP1 SWAP2 SUB SWAP1 REVERT JUMPDEST PUSH1 0x0 PUSH2 0x141A PUSH2 0xBBF JUMP JUMPDEST SWAP1 POP PUSH1 0x0 PUSH2 0x1427 DUP6 PUSH2 0x189B JUMP JUMPDEST SWAP1 POP PUSH1 0x0 PUSH2 0x1434 DUP6 PUSH2 0x189B JUMP JUMPDEST SWAP1 POP PUSH2 0x1444 DUP4 DUP10 DUP10 DUP6 DUP6 DUP10 PUSH2 0x16A6 JUMP JUMPDEST PUSH1 0x0 DUP1 PUSH1 0x0 DUP9 DUP2 MSTORE PUSH1 0x20 ADD SWAP1 DUP2 MSTORE PUSH1 0x20 ADD PUSH1 0x0 KECCAK256 PUSH1 0x0 DUP11 PUSH20 0xFFFFFFFFFFFFFFFFFFFFFFFFFFFFFFFFFFFFFFFF AND PUSH20 0xFFFFFFFFFFFFFFFFFFFFFFFFFFFFFFFFFFFFFFFF AND DUP2 MSTORE PUSH1 0x20 ADD SWAP1 DUP2 MSTORE PUSH1 0x20 ADD PUSH1 0x0 KECCAK256 SLOAD SWAP1 POP DUP6 DUP2 LT ISZERO PUSH2 0x14DB JUMPI PUSH1 0x40 MLOAD PUSH32 0x8C379A000000000000000000000000000000000000000000000000000000000 DUP2 MSTORE PUSH1 0x4 ADD PUSH2 0x14D2 SWAP1 PUSH2 0x2CA3 JUMP JUMPDEST PUSH1 0x40 MLOAD DUP1 SWAP2 SUB SWAP1 REVERT JUMPDEST DUP6 DUP2 SUB PUSH1 0x0 DUP1 DUP10 DUP2 MSTORE PUSH1 0x20 ADD SWAP1 DUP2 MSTORE PUSH1 0x20 ADD PUSH1 0x0 KECCAK256 PUSH1 0x0 DUP12 PUSH20 0xFFFFFFFFFFFFFFFFFFFFFFFFFFFFFFFFFFFFFFFF AND PUSH20 0xFFFFFFFFFFFFFFFFFFFFFFFFFFFFFFFFFFFFFFFF AND DUP2 MSTORE PUSH1 0x20 ADD SWAP1 DUP2 MSTORE PUSH1 0x20 ADD PUSH1 0x0 KECCAK256 DUP2 SWAP1 SSTORE POP DUP6 PUSH1 0x0 DUP1 DUP10 DUP2 MSTORE PUSH1 0x20 ADD SWAP1 DUP2 MSTORE PUSH1 0x20 ADD PUSH1 0x0 KECCAK256 PUSH1 0x0 DUP11 PUSH20 0xFFFFFFFFFFFFFFFFFFFFFFFFFFFFFFFFFFFFFFFF AND PUSH20 0xFFFFFFFFFFFFFFFFFFFFFFFFFFFFFFFFFFFFFFFF AND DUP2 MSTORE PUSH1 0x20 ADD SWAP1 DUP2 MSTORE PUSH1 0x20 ADD PUSH1 0x0 KECCAK256 PUSH1 0x0 DUP3 DUP3 SLOAD PUSH2 0x1590 SWAP2 SWAP1 PUSH2 0x2CC3 JUMP JUMPDEST SWAP3 POP POP DUP2 SWAP1 SSTORE POP DUP8 PUSH20 0xFFFFFFFFFFFFFFFFFFFFFFFFFFFFFFFFFFFFFFFF AND DUP10 PUSH20 0xFFFFFFFFFFFFFFFFFFFFFFFFFFFFFFFFFFFFFFFF AND DUP6 PUSH20 0xFFFFFFFFFFFFFFFFFFFFFFFFFFFFFFFFFFFFFFFF AND PUSH32 0xC3D58168C5AE7397731D063D5BBF3D657854427343F4C083240F7AACAA2D0F62 DUP11 DUP11 PUSH1 0x40 MLOAD PUSH2 0x160D SWAP3 SWAP2 SWAP1 PUSH2 0x2E2C JUMP JUMPDEST PUSH1 0x40 MLOAD DUP1 SWAP2 SUB SWAP1 LOG4 PUSH2 0x1623 DUP5 DUP11 DUP11 DUP7 DUP7 DUP11 PUSH2 0x16BC JUMP JUMPDEST PUSH2 0x1631 DUP5 DUP11 DUP11 DUP11 DUP11 DUP11 PUSH2 0x1915 JUMP JUMPDEST POP POP POP POP POP POP POP POP POP JUMP JUMPDEST PUSH1 0x0 PUSH32 0x1FFC9A700000000000000000000000000000000000000000000000000000000 PUSH28 0xFFFFFFFFFFFFFFFFFFFFFFFFFFFFFFFFFFFFFFFFFFFFFFFFFFFFFFFF NOT AND DUP3 PUSH28 0xFFFFFFFFFFFFFFFFFFFFFFFFFFFFFFFFFFFFFFFFFFFFFFFFFFFFFFFF NOT AND EQ SWAP1 POP SWAP2 SWAP1 POP JUMP JUMPDEST PUSH2 0x16B4 DUP7 DUP7 DUP7 DUP7 DUP7 DUP7 PUSH2 0x1AEC JUMP JUMPDEST POP POP POP POP POP POP JUMP JUMPDEST POP POP POP POP POP POP JUMP JUMPDEST PUSH2 0x16E3 DUP5 PUSH20 0xFFFFFFFFFFFFFFFFFFFFFFFFFFFFFFFFFFFFFFFF AND PUSH2 0x1CBC JUMP JUMPDEST ISZERO PUSH2 0x1893 JUMPI DUP4 PUSH20 0xFFFFFFFFFFFFFFFFFFFFFFFFFFFFFFFFFFFFFFFF AND PUSH4 0xBC197C81 DUP8 DUP8 DUP7 DUP7 DUP7 PUSH1 0x40 MLOAD DUP7 PUSH4 0xFFFFFFFF AND PUSH1 0xE0 SHL DUP2 MSTORE PUSH1 0x4 ADD PUSH2 0x1729 SWAP6 SWAP5 SWAP4 SWAP3 SWAP2 SWAP1 PUSH2 0x2F3C JUMP JUMPDEST PUSH1 0x20 PUSH1 0x40 MLOAD DUP1 DUP4 SUB DUP2 PUSH1 0x0 DUP8 GAS CALL SWAP3 POP POP POP DUP1 ISZERO PUSH2 0x1765 JUMPI POP PUSH1 0x40 MLOAD RETURNDATASIZE PUSH1 0x1F NOT PUSH1 0x1F DUP3 ADD AND DUP3 ADD DUP1 PUSH1 0x40 MSTORE POP DUP2 ADD SWAP1 PUSH2 0x1762 SWAP2 SWAP1 PUSH2 0x2FB9 JUMP JUMPDEST PUSH1 0x1 JUMPDEST PUSH2 0x180A JUMPI PUSH2 0x1771 PUSH2 0x2FF3 JUMP JUMPDEST DUP1 PUSH4 0x8C379A0 SUB PUSH2 0x17CD JUMPI POP PUSH2 0x1785 PUSH2 0x3015 JUMP JUMPDEST DUP1 PUSH2 0x1790 JUMPI POP PUSH2 0x17CF JUMP JUMPDEST DUP1 PUSH1 0x40 MLOAD PUSH32 0x8C379A000000000000000000000000000000000000000000000000000000000 DUP2 MSTORE PUSH1 0x4 ADD PUSH2 0x17C4 SWAP2 SWAP1 PUSH2 0x1F71 JUMP JUMPDEST PUSH1 0x40 MLOAD DUP1 SWAP2 SUB SWAP1 REVERT JUMPDEST POP JUMPDEST PUSH1 0x40 MLOAD PUSH32 0x8C379A000000000000000000000000000000000000000000000000000000000 DUP2 MSTORE PUSH1 0x4 ADD PUSH2 0x1801 SWAP1 PUSH2 0x3117 JUMP JUMPDEST PUSH1 0x40 MLOAD DUP1 SWAP2 SUB SWAP1 REVERT JUMPDEST PUSH4 0xBC197C81 PUSH1 0xE0 SHL PUSH28 0xFFFFFFFFFFFFFFFFFFFFFFFFFFFFFFFFFFFFFFFFFFFFFFFFFFFFFFFF NOT AND DUP2 PUSH28 0xFFFFFFFFFFFFFFFFFFFFFFFFFFFFFFFFFFFFFFFFFFFFFFFFFFFFFFFF NOT AND EQ PUSH2 0x1891 JUMPI PUSH1 0x40 MLOAD PUSH32 0x8C379A000000000000000000000000000000000000000000000000000000000 DUP2 MSTORE PUSH1 0x4 ADD PUSH2 0x1888 SWAP1 PUSH2 0x31A9 JUMP JUMPDEST PUSH1 0x40 MLOAD DUP1 SWAP2 SUB SWAP1 REVERT JUMPDEST POP JUMPDEST POP POP POP POP POP POP JUMP JUMPDEST PUSH1 0x60 PUSH1 0x0 PUSH1 0x1 PUSH8 0xFFFFFFFFFFFFFFFF DUP2 GT ISZERO PUSH2 0x18BA JUMPI PUSH2 0x18B9 PUSH2 0x1F98 JUMP JUMPDEST JUMPDEST PUSH1 0x40 MLOAD SWAP1 DUP1 DUP3 MSTORE DUP1 PUSH1 0x20 MUL PUSH1 0x20 ADD DUP3 ADD PUSH1 0x40 MSTORE DUP1 ISZERO PUSH2 0x18E8 JUMPI DUP2 PUSH1 0x20 ADD PUSH1 0x20 DUP3 MUL DUP1 CALLDATASIZE DUP4 CALLDATACOPY DUP1 DUP3 ADD SWAP2 POP POP SWAP1 POP JUMPDEST POP SWAP1 POP DUP3 DUP2 PUSH1 0x0 DUP2 MLOAD DUP2 LT PUSH2 0x1900 JUMPI PUSH2 0x18FF PUSH2 0x2927 JUMP JUMPDEST JUMPDEST PUSH1 0x20 MUL PUSH1 0x20 ADD ADD DUP2 DUP2 MSTORE POP POP DUP1 SWAP2 POP POP SWAP2 SWAP1 POP JUMP JUMPDEST PUSH2 0x1934 DUP5 PUSH20 0xFFFFFFFFFFFFFFFFFFFFFFFFFFFFFFFFFFFFFFFF AND PUSH2 0x1CBC JUMP JUMPDEST ISZERO PUSH2 0x1AE4 JUMPI DUP4 PUSH20 0xFFFFFFFFFFFFFFFFFFFFFFFFFFFFFFFFFFFFFFFF AND PUSH4 0xF23A6E61 DUP8 DUP8 DUP7 DUP7 DUP7 PUSH1 0x40 MLOAD DUP7 PUSH4 0xFFFFFFFF AND PUSH1 0xE0 SHL DUP2 MSTORE PUSH1 0x4 ADD PUSH2 0x197A SWAP6 SWAP5 SWAP4 SWAP3 SWAP2 SWAP1 PUSH2 0x31C9 JUMP JUMPDEST PUSH1 0x20 PUSH1 0x40 MLOAD DUP1 DUP4 SUB DUP2 PUSH1 0x0 DUP8 GAS CALL SWAP3 POP POP POP DUP1 ISZERO PUSH2 0x19B6 JUMPI POP PUSH1 0x40 MLOAD RETURNDATASIZE PUSH1 0x1F NOT PUSH1 0x1F DUP3 ADD AND DUP3 ADD DUP1 PUSH1 0x40 MSTORE POP DUP2 ADD SWAP1 PUSH2 0x19B3 SWAP2 SWAP1 PUSH2 0x2FB9 JUMP JUMPDEST PUSH1 0x1 JUMPDEST PUSH2 0x1A5B JUMPI PUSH2 0x19C2 PUSH2 0x2FF3 JUMP JUMPDEST DUP1 PUSH4 0x8C379A0 SUB PUSH2 0x1A1E JUMPI POP PUSH2 0x19D6 PUSH2 0x3015 JUMP JUMPDEST DUP1 PUSH2 0x19E1 JUMPI POP PUSH2 0x1A20 JUMP JUMPDEST DUP1 PUSH1 0x40 MLOAD PUSH32 0x8C379A000000000000000000000000000000000000000000000000000000000 DUP2 MSTORE PUSH1 0x4 ADD PUSH2 0x1A15 SWAP2 SWAP1 PUSH2 0x1F71 JUMP JUMPDEST PUSH1 0x40 MLOAD DUP1 SWAP2 SUB SWAP1 REVERT JUMPDEST POP JUMPDEST PUSH1 0x40 MLOAD PUSH32 0x8C379A000000000000000000000000000000000000000000000000000000000 DUP2 MSTORE PUSH1 0x4 ADD PUSH2 0x1A52 SWAP1 PUSH2 0x3117 JUMP JUMPDEST PUSH1 0x40 MLOAD DUP1 SWAP2 SUB SWAP1 REVERT JUMPDEST PUSH4 0xF23A6E61 PUSH1 0xE0 SHL PUSH28 0xFFFFFFFFFFFFFFFFFFFFFFFFFFFFFFFFFFFFFFFFFFFFFFFFFFFFFFFF NOT AND DUP2 PUSH28 0xFFFFFFFFFFFFFFFFFFFFFFFFFFFFFFFFFFFFFFFFFFFFFFFFFFFFFFFF NOT AND EQ PUSH2 0x1AE2 JUMPI PUSH1 0x40 MLOAD PUSH32 0x8C379A000000000000000000000000000000000000000000000000000000000 DUP2 MSTORE PUSH1 0x4 ADD PUSH2 0x1AD9 SWAP1 PUSH2 0x31A9 JUMP JUMPDEST PUSH1 0x40 MLOAD DUP1 SWAP2 SUB SWAP1 REVERT JUMPDEST POP JUMPDEST POP POP POP POP POP POP JUMP JUMPDEST PUSH2 0x1AFA DUP7 DUP7 DUP7 DUP7 DUP7 DUP7 PUSH2 0x1CDF JUMP JUMPDEST PUSH1 0x0 PUSH20 0xFFFFFFFFFFFFFFFFFFFFFFFFFFFFFFFFFFFFFFFF AND DUP6 PUSH20 0xFFFFFFFFFFFFFFFFFFFFFFFFFFFFFFFFFFFFFFFF AND SUB PUSH2 0x1BAB JUMPI PUSH1 0x0 JUMPDEST DUP4 MLOAD DUP2 LT ISZERO PUSH2 0x1BA9 JUMPI DUP3 DUP2 DUP2 MLOAD DUP2 LT PUSH2 0x1B4D JUMPI PUSH2 0x1B4C PUSH2 0x2927 JUMP JUMPDEST JUMPDEST PUSH1 0x20 MUL PUSH1 0x20 ADD ADD MLOAD PUSH1 0x4 PUSH1 0x0 DUP7 DUP5 DUP2 MLOAD DUP2 LT PUSH2 0x1B6C JUMPI PUSH2 0x1B6B PUSH2 0x2927 JUMP JUMPDEST JUMPDEST PUSH1 0x20 MUL PUSH1 0x20 ADD ADD MLOAD DUP2 MSTORE PUSH1 0x20 ADD SWAP1 DUP2 MSTORE PUSH1 0x20 ADD PUSH1 0x0 KECCAK256 PUSH1 0x0 DUP3 DUP3 SLOAD PUSH2 0x1B91 SWAP2 SWAP1 PUSH2 0x2CC3 JUMP JUMPDEST SWAP3 POP POP DUP2 SWAP1 SSTORE POP DUP1 PUSH2 0x1BA2 SWAP1 PUSH2 0x2985 JUMP JUMPDEST SWAP1 POP PUSH2 0x1B31 JUMP JUMPDEST POP JUMPDEST PUSH1 0x0 PUSH20 0xFFFFFFFFFFFFFFFFFFFFFFFFFFFFFFFFFFFFFFFF AND DUP5 PUSH20 0xFFFFFFFFFFFFFFFFFFFFFFFFFFFFFFFFFFFFFFFF AND SUB PUSH2 0x1CB4 JUMPI PUSH1 0x0 JUMPDEST DUP4 MLOAD DUP2 LT ISZERO PUSH2 0x1CB2 JUMPI PUSH1 0x0 DUP5 DUP3 DUP2 MLOAD DUP2 LT PUSH2 0x1C00 JUMPI PUSH2 0x1BFF PUSH2 0x2927 JUMP JUMPDEST JUMPDEST PUSH1 0x20 MUL PUSH1 0x20 ADD ADD MLOAD SWAP1 POP PUSH1 0x0 DUP5 DUP4 DUP2 MLOAD DUP2 LT PUSH2 0x1C1F JUMPI PUSH2 0x1C1E PUSH2 0x2927 JUMP JUMPDEST JUMPDEST PUSH1 0x20 MUL PUSH1 0x20 ADD ADD MLOAD SWAP1 POP PUSH1 0x0 PUSH1 0x4 PUSH1 0x0 DUP5 DUP2 MSTORE PUSH1 0x20 ADD SWAP1 DUP2 MSTORE PUSH1 0x20 ADD PUSH1 0x0 KECCAK256 SLOAD SWAP1 POP DUP2 DUP2 LT ISZERO PUSH2 0x1C84 JUMPI PUSH1 0x40 MLOAD PUSH32 0x8C379A000000000000000000000000000000000000000000000000000000000 DUP2 MSTORE PUSH1 0x4 ADD PUSH2 0x1C7B SWAP1 PUSH2 0x3295 JUMP JUMPDEST PUSH1 0x40 MLOAD DUP1 SWAP2 SUB SWAP1 REVERT JUMPDEST DUP2 DUP2 SUB PUSH1 0x4 PUSH1 0x0 DUP6 DUP2 MSTORE PUSH1 0x20 ADD SWAP1 DUP2 MSTORE PUSH1 0x20 ADD PUSH1 0x0 KECCAK256 DUP2 SWAP1 SSTORE POP POP POP POP DUP1 PUSH2 0x1CAB SWAP1 PUSH2 0x2985 JUMP JUMPDEST SWAP1 POP PUSH2 0x1BE2 JUMP JUMPDEST POP JUMPDEST POP POP POP POP POP POP JUMP JUMPDEST PUSH1 0x0 DUP1 DUP3 PUSH20 0xFFFFFFFFFFFFFFFFFFFFFFFFFFFFFFFFFFFFFFFF AND EXTCODESIZE GT SWAP1 POP SWAP2 SWAP1 POP JUMP JUMPDEST POP POP POP POP POP POP JUMP JUMPDEST PUSH1 0x0 PUSH1 0x40 MLOAD SWAP1 POP SWAP1 JUMP JUMPDEST PUSH1 0x0 DUP1 REVERT JUMPDEST PUSH1 0x0 DUP1 REVERT JUMPDEST PUSH1 0x0 PUSH20 0xFFFFFFFFFFFFFFFFFFFFFFFFFFFFFFFFFFFFFFFF DUP3 AND SWAP1 POP SWAP2 SWAP1 POP JUMP JUMPDEST PUSH1 0x0 PUSH2 0x1D26 DUP3 PUSH2 0x1CFB JUMP JUMPDEST SWAP1 POP SWAP2 SWAP1 POP JUMP JUMPDEST PUSH2 0x1D36 DUP2 PUSH2 0x1D1B JUMP JUMPDEST DUP2 EQ PUSH2 0x1D41 JUMPI PUSH1 0x0 DUP1 REVERT JUMPDEST POP JUMP JUMPDEST PUSH1 0x0 DUP2 CALLDATALOAD SWAP1 POP PUSH2 0x1D53 DUP2 PUSH2 0x1D2D JUMP JUMPDEST SWAP3 SWAP2 POP POP JUMP JUMPDEST PUSH1 0x0 DUP2 SWAP1 POP SWAP2 SWAP1 POP JUMP JUMPDEST PUSH2 0x1D6C DUP2 PUSH2 0x1D59 JUMP JUMPDEST DUP2 EQ PUSH2 0x1D77 JUMPI PUSH1 0x0 DUP1 REVERT JUMPDEST POP JUMP JUMPDEST PUSH1 0x0 DUP2 CALLDATALOAD SWAP1 POP PUSH2 0x1D89 DUP2 PUSH2 0x1D63 JUMP JUMPDEST SWAP3 SWAP2 POP POP JUMP JUMPDEST PUSH1 0x0 DUP1 PUSH1 0x40 DUP4 DUP6 SUB SLT ISZERO PUSH2 0x1DA6 JUMPI PUSH2 0x1DA5 PUSH2 0x1CF1 JUMP JUMPDEST JUMPDEST PUSH1 0x0 PUSH2 0x1DB4 DUP6 DUP3 DUP7 ADD PUSH2 0x1D44 JUMP JUMPDEST SWAP3 POP POP PUSH1 0x20 PUSH2 0x1DC5 DUP6 DUP3 DUP7 ADD PUSH2 0x1D7A JUMP JUMPDEST SWAP2 POP POP SWAP3 POP SWAP3 SWAP1 POP JUMP JUMPDEST PUSH2 0x1DD8 DUP2 PUSH2 0x1D59 JUMP JUMPDEST DUP3 MSTORE POP POP JUMP JUMPDEST PUSH1 0x0 PUSH1 0x20 DUP3 ADD SWAP1 POP PUSH2 0x1DF3 PUSH1 0x0 DUP4 ADD DUP5 PUSH2 0x1DCF JUMP JUMPDEST SWAP3 SWAP2 POP POP JUMP JUMPDEST PUSH1 0x0 PUSH32 0xFFFFFFFF00000000000000000000000000000000000000000000000000000000 DUP3 AND SWAP1 POP SWAP2 SWAP1 POP JUMP JUMPDEST PUSH2 0x1E2E DUP2 PUSH2 0x1DF9 JUMP JUMPDEST DUP2 EQ PUSH2 0x1E39 JUMPI PUSH1 0x0 DUP1 REVERT JUMPDEST POP JUMP JUMPDEST PUSH1 0x0 DUP2 CALLDATALOAD SWAP1 POP PUSH2 0x1E4B DUP2 PUSH2 0x1E25 JUMP JUMPDEST SWAP3 SWAP2 POP POP JUMP JUMPDEST PUSH1 0x0 PUSH1 0x20 DUP3 DUP5 SUB SLT ISZERO PUSH2 0x1E67 JUMPI PUSH2 0x1E66 PUSH2 0x1CF1 JUMP JUMPDEST JUMPDEST PUSH1 0x0 PUSH2 0x1E75 DUP5 DUP3 DUP6 ADD PUSH2 0x1E3C JUMP JUMPDEST SWAP2 POP POP SWAP3 SWAP2 POP POP JUMP JUMPDEST PUSH1 0x0 DUP2 ISZERO ISZERO SWAP1 POP SWAP2 SWAP1 POP JUMP JUMPDEST PUSH2 0x1E93 DUP2 PUSH2 0x1E7E JUMP JUMPDEST DUP3 MSTORE POP POP JUMP JUMPDEST PUSH1 0x0 PUSH1 0x20 DUP3 ADD SWAP1 POP PUSH2 0x1EAE PUSH1 0x0 DUP4 ADD DUP5 PUSH2 0x1E8A JUMP JUMPDEST SWAP3 SWAP2 POP POP JUMP JUMPDEST PUSH1 0x0 PUSH1 0x20 DUP3 DUP5 SUB SLT ISZERO PUSH2 0x1ECA JUMPI PUSH2 0x1EC9 PUSH2 0x1CF1 JUMP JUMPDEST JUMPDEST PUSH1 0x0 PUSH2 0x1ED8 DUP5 DUP3 DUP6 ADD PUSH2 0x1D7A JUMP JUMPDEST SWAP2 POP POP SWAP3 SWAP2 POP POP JUMP JUMPDEST PUSH1 0x0 DUP2 MLOAD SWAP1 POP SWAP2 SWAP1 POP JUMP JUMPDEST PUSH1 0x0 DUP3 DUP3 MSTORE PUSH1 0x20 DUP3 ADD SWAP1 POP SWAP3 SWAP2 POP POP JUMP JUMPDEST PUSH1 0x0 JUMPDEST DUP4 DUP2 LT ISZERO PUSH2 0x1F1B JUMPI DUP1 DUP3 ADD MLOAD DUP2 DUP5 ADD MSTORE PUSH1 0x20 DUP2 ADD SWAP1 POP PUSH2 0x1F00 JUMP JUMPDEST PUSH1 0x0 DUP5 DUP5 ADD MSTORE POP POP POP POP JUMP JUMPDEST PUSH1 0x0 PUSH1 0x1F NOT PUSH1 0x1F DUP4 ADD AND SWAP1 POP SWAP2 SWAP1 POP JUMP JUMPDEST PUSH1 0x0 PUSH2 0x1F43 DUP3 PUSH2 0x1EE1 JUMP JUMPDEST PUSH2 0x1F4D DUP2 DUP6 PUSH2 0x1EEC JUMP JUMPDEST SWAP4 POP PUSH2 0x1F5D DUP2 DUP6 PUSH1 0x20 DUP7 ADD PUSH2 0x1EFD JUMP JUMPDEST PUSH2 0x1F66 DUP2 PUSH2 0x1F27 JUMP JUMPDEST DUP5 ADD SWAP2 POP POP SWAP3 SWAP2 POP POP JUMP JUMPDEST PUSH1 0x0 PUSH1 0x20 DUP3 ADD SWAP1 POP DUP2 DUP2 SUB PUSH1 0x0 DUP4 ADD MSTORE PUSH2 0x1F8B DUP2 DUP5 PUSH2 0x1F38 JUMP JUMPDEST SWAP1 POP SWAP3 SWAP2 POP POP JUMP JUMPDEST PUSH1 0x0 DUP1 REVERT JUMPDEST PUSH32 0x4E487B7100000000000000000000000000000000000000000000000000000000 PUSH1 0x0 MSTORE PUSH1 0x41 PUSH1 0x4 MSTORE PUSH1 0x24 PUSH1 0x0 REVERT JUMPDEST PUSH2 0x1FD0 DUP3 PUSH2 0x1F27 JUMP JUMPDEST DUP2 ADD DUP2 DUP2 LT PUSH8 0xFFFFFFFFFFFFFFFF DUP3 GT OR ISZERO PUSH2 0x1FEF JUMPI PUSH2 0x1FEE PUSH2 0x1F98 JUMP JUMPDEST JUMPDEST DUP1 PUSH1 0x40 MSTORE POP POP POP JUMP JUMPDEST PUSH1 0x0 PUSH2 0x2002 PUSH2 0x1CE7 JUMP JUMPDEST SWAP1 POP PUSH2 0x200E DUP3 DUP3 PUSH2 0x1FC7 JUMP JUMPDEST SWAP2 SWAP1 POP JUMP JUMPDEST PUSH1 0x0 PUSH8 0xFFFFFFFFFFFFFFFF DUP3 GT ISZERO PUSH2 0x202E JUMPI PUSH2 0x202D PUSH2 0x1F98 JUMP JUMPDEST JUMPDEST PUSH1 0x20 DUP3 MUL SWAP1 POP PUSH1 0x20 DUP2 ADD SWAP1 POP SWAP2 SWAP1 POP JUMP JUMPDEST PUSH1 0x0 DUP1 REVERT JUMPDEST PUSH1 0x0 PUSH2 0x2057 PUSH2 0x2052 DUP5 PUSH2 0x2013 JUMP JUMPDEST PUSH2 0x1FF8 JUMP JUMPDEST SWAP1 POP DUP1 DUP4 DUP3 MSTORE PUSH1 0x20 DUP3 ADD SWAP1 POP PUSH1 0x20 DUP5 MUL DUP4 ADD DUP6 DUP2 GT ISZERO PUSH2 0x207A JUMPI PUSH2 0x2079 PUSH2 0x203F JUMP JUMPDEST JUMPDEST DUP4 JUMPDEST DUP2 DUP2 LT ISZERO PUSH2 0x20A3 JUMPI DUP1 PUSH2 0x208F DUP9 DUP3 PUSH2 0x1D7A JUMP JUMPDEST DUP5 MSTORE PUSH1 0x20 DUP5 ADD SWAP4 POP POP PUSH1 0x20 DUP2 ADD SWAP1 POP PUSH2 0x207C JUMP JUMPDEST POP POP POP SWAP4 SWAP3 POP POP POP JUMP JUMPDEST PUSH1 0x0 DUP3 PUSH1 0x1F DUP4 ADD SLT PUSH2 0x20C2 JUMPI PUSH2 0x20C1 PUSH2 0x1F93 JUMP JUMPDEST JUMPDEST DUP2 CALLDATALOAD PUSH2 0x20D2 DUP5 DUP3 PUSH1 0x20 DUP7 ADD PUSH2 0x2044 JUMP JUMPDEST SWAP2 POP POP SWAP3 SWAP2 POP POP JUMP JUMPDEST PUSH1 0x0 DUP1 REVERT JUMPDEST PUSH1 0x0 PUSH8 0xFFFFFFFFFFFFFFFF DUP3 GT ISZERO PUSH2 0x20FB JUMPI PUSH2 0x20FA PUSH2 0x1F98 JUMP JUMPDEST JUMPDEST PUSH2 0x2104 DUP3 PUSH2 0x1F27 JUMP JUMPDEST SWAP1 POP PUSH1 0x20 DUP2 ADD SWAP1 POP SWAP2 SWAP1 POP JUMP JUMPDEST DUP3 DUP2 DUP4 CALLDATACOPY PUSH1 0x0 DUP4 DUP4 ADD MSTORE POP POP POP JUMP JUMPDEST PUSH1 0x0 PUSH2 0x2133 PUSH2 0x212E DUP5 PUSH2 0x20E0 JUMP JUMPDEST PUSH2 0x1FF8 JUMP JUMPDEST SWAP1 POP DUP3 DUP2 MSTORE PUSH1 0x20 DUP2 ADD DUP5 DUP5 DUP5 ADD GT ISZERO PUSH2 0x214F JUMPI PUSH2 0x214E PUSH2 0x20DB JUMP JUMPDEST JUMPDEST PUSH2 0x215A DUP5 DUP3 DUP6 PUSH2 0x2111 JUMP JUMPDEST POP SWAP4 SWAP3 POP POP POP JUMP JUMPDEST PUSH1 0x0 DUP3 PUSH1 0x1F DUP4 ADD SLT PUSH2 0x2177 JUMPI PUSH2 0x2176 PUSH2 0x1F93 JUMP JUMPDEST JUMPDEST DUP2 CALLDATALOAD PUSH2 0x2187 DUP5 DUP3 PUSH1 0x20 DUP7 ADD PUSH2 0x2120 JUMP JUMPDEST SWAP2 POP POP SWAP3 SWAP2 POP POP JUMP JUMPDEST PUSH1 0x0 DUP1 PUSH1 0x0 DUP1 PUSH1 0x0 PUSH1 0xA0 DUP7 DUP9 SUB SLT ISZERO PUSH2 0x21AC JUMPI PUSH2 0x21AB PUSH2 0x1CF1 JUMP JUMPDEST JUMPDEST PUSH1 0x0 PUSH2 0x21BA DUP9 DUP3 DUP10 ADD PUSH2 0x1D44 JUMP JUMPDEST SWAP6 POP POP PUSH1 0x20 PUSH2 0x21CB DUP9 DUP3 DUP10 ADD PUSH2 0x1D44 JUMP JUMPDEST SWAP5 POP POP PUSH1 0x40 DUP7 ADD CALLDATALOAD PUSH8 0xFFFFFFFFFFFFFFFF DUP2 GT ISZERO PUSH2 0x21EC JUMPI PUSH2 0x21EB PUSH2 0x1CF6 JUMP JUMPDEST JUMPDEST PUSH2 0x21F8 DUP9 DUP3 DUP10 ADD PUSH2 0x20AD JUMP JUMPDEST SWAP4 POP POP PUSH1 0x60 DUP7 ADD CALLDATALOAD PUSH8 0xFFFFFFFFFFFFFFFF DUP2 GT ISZERO PUSH2 0x2219 JUMPI PUSH2 0x2218 PUSH2 0x1CF6 JUMP JUMPDEST JUMPDEST PUSH2 0x2225 DUP9 DUP3 DUP10 ADD PUSH2 0x20AD JUMP JUMPDEST SWAP3 POP POP PUSH1 0x80 DUP7 ADD CALLDATALOAD PUSH8 0xFFFFFFFFFFFFFFFF DUP2 GT ISZERO PUSH2 0x2246 JUMPI PUSH2 0x2245 PUSH2 0x1CF6 JUMP JUMPDEST JUMPDEST PUSH2 0x2252 DUP9 DUP3 DUP10 ADD PUSH2 0x2162 JUMP JUMPDEST SWAP2 POP POP SWAP3 SWAP6 POP SWAP3 SWAP6 SWAP1 SWAP4 POP JUMP JUMPDEST PUSH1 0x0 PUSH8 0xFFFFFFFFFFFFFFFF DUP3 GT ISZERO PUSH2 0x227A JUMPI PUSH2 0x2279 PUSH2 0x1F98 JUMP JUMPDEST JUMPDEST PUSH1 0x20 DUP3 MUL SWAP1 POP PUSH1 0x20 DUP2 ADD SWAP1 POP SWAP2 SWAP1 POP JUMP JUMPDEST PUSH1 0x0 PUSH2 0x229E PUSH2 0x2299 DUP5 PUSH2 0x225F JUMP JUMPDEST PUSH2 0x1FF8 JUMP JUMPDEST SWAP1 POP DUP1 DUP4 DUP3 MSTORE PUSH1 0x20 DUP3 ADD SWAP1 POP PUSH1 0x20 DUP5 MUL DUP4 ADD DUP6 DUP2 GT ISZERO PUSH2 0x22C1 JUMPI PUSH2 0x22C0 PUSH2 0x203F JUMP JUMPDEST JUMPDEST DUP4 JUMPDEST DUP2 DUP2 LT ISZERO PUSH2 0x22EA JUMPI DUP1 PUSH2 0x22D6 DUP9 DUP3 PUSH2 0x1D44 JUMP JUMPDEST DUP5 MSTORE PUSH1 0x20 DUP5 ADD SWAP4 POP POP PUSH1 0x20 DUP2 ADD SWAP1 POP PUSH2 0x22C3 JUMP JUMPDEST POP POP POP SWAP4 SWAP3 POP POP POP JUMP JUMPDEST PUSH1 0x0 DUP3 PUSH1 0x1F DUP4 ADD SLT PUSH2 0x2309 JUMPI PUSH2 0x2308 PUSH2 0x1F93 JUMP JUMPDEST JUMPDEST DUP2 CALLDATALOAD PUSH2 0x2319 DUP5 DUP3 PUSH1 0x20 DUP7 ADD PUSH2 0x228B JUMP JUMPDEST SWAP2 POP POP SWAP3 SWAP2 POP POP JUMP JUMPDEST PUSH1 0x0 DUP1 PUSH1 0x40 DUP4 DUP6 SUB SLT ISZERO PUSH2 0x2339 JUMPI PUSH2 0x2338 PUSH2 0x1CF1 JUMP JUMPDEST JUMPDEST PUSH1 0x0 DUP4 ADD CALLDATALOAD PUSH8 0xFFFFFFFFFFFFFFFF DUP2 GT ISZERO PUSH2 0x2357 JUMPI PUSH2 0x2356 PUSH2 0x1CF6 JUMP JUMPDEST JUMPDEST PUSH2 0x2363 DUP6 DUP3 DUP7 ADD PUSH2 0x22F4 JUMP JUMPDEST SWAP3 POP POP PUSH1 0x20 DUP4 ADD CALLDATALOAD PUSH8 0xFFFFFFFFFFFFFFFF DUP2 GT ISZERO PUSH2 0x2384 JUMPI PUSH2 0x2383 PUSH2 0x1CF6 JUMP JUMPDEST JUMPDEST PUSH2 0x2390 DUP6 DUP3 DUP7 ADD PUSH2 0x20AD JUMP JUMPDEST SWAP2 POP POP SWAP3 POP SWAP3 SWAP1 POP JUMP JUMPDEST PUSH1 0x0 DUP2 MLOAD SWAP1 POP SWAP2 SWAP1 POP JUMP JUMPDEST PUSH1 0x0 DUP3 DUP3 MSTORE PUSH1 0x20 DUP3 ADD SWAP1 POP SWAP3 SWAP2 POP POP JUMP JUMPDEST PUSH1 0x0 DUP2 SWAP1 POP PUSH1 0x20 DUP3 ADD SWAP1 POP SWAP2 SWAP1 POP JUMP JUMPDEST PUSH2 0x23CF DUP2 PUSH2 0x1D59 JUMP JUMPDEST DUP3 MSTORE POP POP JUMP JUMPDEST PUSH1 0x0 PUSH2 0x23E1 DUP4 DUP4 PUSH2 0x23C6 JUMP JUMPDEST PUSH1 0x20 DUP4 ADD SWAP1 POP SWAP3 SWAP2 POP POP JUMP JUMPDEST PUSH1 0x0 PUSH1 0x20 DUP3 ADD SWAP1 POP SWAP2 SWAP1 POP JUMP JUMPDEST PUSH1 0x0 PUSH2 0x2405 DUP3 PUSH2 0x239A JUMP JUMPDEST PUSH2 0x240F DUP2 DUP6 PUSH2 0x23A5 JUMP JUMPDEST SWAP4 POP PUSH2 0x241A DUP4 PUSH2 0x23B6 JUMP JUMPDEST DUP1 PUSH1 0x0 JUMPDEST DUP4 DUP2 LT ISZERO PUSH2 0x244B JUMPI DUP2 MLOAD PUSH2 0x2432 DUP9 DUP3 PUSH2 0x23D5 JUMP JUMPDEST SWAP8 POP PUSH2 0x243D DUP4 PUSH2 0x23ED JUMP JUMPDEST SWAP3 POP POP PUSH1 0x1 DUP2 ADD SWAP1 POP PUSH2 0x241E JUMP JUMPDEST POP DUP6 SWAP4 POP POP POP POP SWAP3 SWAP2 POP POP JUMP JUMPDEST PUSH1 0x0 PUSH1 0x20 DUP3 ADD SWAP1 POP DUP2 DUP2 SUB PUSH1 0x0 DUP4 ADD MSTORE PUSH2 0x2472 DUP2 DUP5 PUSH2 0x23FA JUMP JUMPDEST SWAP1 POP SWAP3 SWAP2 POP POP JUMP JUMPDEST PUSH1 0x0 PUSH8 0xFFFFFFFFFFFFFFFF DUP3 GT ISZERO PUSH2 0x2495 JUMPI PUSH2 0x2494 PUSH2 0x1F98 JUMP JUMPDEST JUMPDEST PUSH2 0x249E DUP3 PUSH2 0x1F27 JUMP JUMPDEST SWAP1 POP PUSH1 0x20 DUP2 ADD SWAP1 POP SWAP2 SWAP1 POP JUMP JUMPDEST PUSH1 0x0 PUSH2 0x24BE PUSH2 0x24B9 DUP5 PUSH2 0x247A JUMP JUMPDEST PUSH2 0x1FF8 JUMP JUMPDEST SWAP1 POP DUP3 DUP2 MSTORE PUSH1 0x20 DUP2 ADD DUP5 DUP5 DUP5 ADD GT ISZERO PUSH2 0x24DA JUMPI PUSH2 0x24D9 PUSH2 0x20DB JUMP JUMPDEST JUMPDEST PUSH2 0x24E5 DUP5 DUP3 DUP6 PUSH2 0x2111 JUMP JUMPDEST POP SWAP4 SWAP3 POP POP POP JUMP JUMPDEST PUSH1 0x0 DUP3 PUSH1 0x1F DUP4 ADD SLT PUSH2 0x2502 JUMPI PUSH2 0x2501 PUSH2 0x1F93 JUMP JUMPDEST JUMPDEST DUP2 CALLDATALOAD PUSH2 0x2512 DUP5 DUP3 PUSH1 0x20 DUP7 ADD PUSH2 0x24AB JUMP JUMPDEST SWAP2 POP POP SWAP3 SWAP2 POP POP JUMP JUMPDEST PUSH1 0x0 DUP1 PUSH1 0x40 DUP4 DUP6 SUB SLT ISZERO PUSH2 0x2532 JUMPI PUSH2 0x2531 PUSH2 0x1CF1 JUMP JUMPDEST JUMPDEST PUSH1 0x0 PUSH2 0x2540 DUP6 DUP3 DUP7 ADD PUSH2 0x1D7A JUMP JUMPDEST SWAP3 POP POP PUSH1 0x20 DUP4 ADD CALLDATALOAD PUSH8 0xFFFFFFFFFFFFFFFF DUP2 GT ISZERO PUSH2 0x2561 JUMPI PUSH2 0x2560 PUSH2 0x1CF6 JUMP JUMPDEST JUMPDEST PUSH2 0x256D DUP6 DUP3 DUP7 ADD PUSH2 0x24ED JUMP JUMPDEST SWAP2 POP POP SWAP3 POP SWAP3 SWAP1 POP JUMP JUMPDEST PUSH2 0x2580 DUP2 PUSH2 0x1D1B JUMP JUMPDEST DUP3 MSTORE POP POP JUMP JUMPDEST PUSH1 0x0 PUSH1 0x20 DUP3 ADD SWAP1 POP PUSH2 0x259B PUSH1 0x0 DUP4 ADD DUP5 PUSH2 0x2577 JUMP JUMPDEST SWAP3 SWAP2 POP POP JUMP JUMPDEST PUSH2 0x25AA DUP2 PUSH2 0x1E7E JUMP JUMPDEST DUP2 EQ PUSH2 0x25B5 JUMPI PUSH1 0x0 DUP1 REVERT JUMPDEST POP JUMP JUMPDEST PUSH1 0x0 DUP2 CALLDATALOAD SWAP1 POP PUSH2 0x25C7 DUP2 PUSH2 0x25A1 JUMP JUMPDEST SWAP3 SWAP2 POP POP JUMP JUMPDEST PUSH1 0x0 DUP1 PUSH1 0x40 DUP4 DUP6 SUB SLT ISZERO PUSH2 0x25E4 JUMPI PUSH2 0x25E3 PUSH2 0x1CF1 JUMP JUMPDEST JUMPDEST PUSH1 0x0 PUSH2 0x25F2 DUP6 DUP3 DUP7 ADD PUSH2 0x1D44 JUMP JUMPDEST SWAP3 POP POP PUSH1 0x20 PUSH2 0x2603 DUP6 DUP3 DUP7 ADD PUSH2 0x25B8 JUMP JUMPDEST SWAP2 POP POP SWAP3 POP SWAP3 SWAP1 POP JUMP JUMPDEST PUSH1 0x0 DUP1 PUSH1 0x40 DUP4 DUP6 SUB SLT ISZERO PUSH2 0x2624 JUMPI PUSH2 0x2623 PUSH2 0x1CF1 JUMP JUMPDEST JUMPDEST PUSH1 0x0 PUSH2 0x2632 DUP6 DUP3 DUP7 ADD PUSH2 0x1D44 JUMP JUMPDEST SWAP3 POP POP PUSH1 0x20 PUSH2 0x2643 DUP6 DUP3 DUP7 ADD PUSH2 0x1D44 JUMP JUMPDEST SWAP2 POP POP SWAP3 POP SWAP3 SWAP1 POP JUMP JUMPDEST PUSH1 0x0 DUP1 PUSH1 0x0 DUP1 PUSH1 0x0 PUSH1 0xA0 DUP7 DUP9 SUB SLT ISZERO PUSH2 0x2669 JUMPI PUSH2 0x2668 PUSH2 0x1CF1 JUMP JUMPDEST JUMPDEST PUSH1 0x0 PUSH2 0x2677 DUP9 DUP3 DUP10 ADD PUSH2 0x1D44 JUMP JUMPDEST SWAP6 POP POP PUSH1 0x20 PUSH2 0x2688 DUP9 DUP3 DUP10 ADD PUSH2 0x1D44 JUMP JUMPDEST SWAP5 POP POP PUSH1 0x40 PUSH2 0x2699 DUP9 DUP3 DUP10 ADD PUSH2 0x1D7A JUMP JUMPDEST SWAP4 POP POP PUSH1 0x60 PUSH2 0x26AA DUP9 DUP3 DUP10 ADD PUSH2 0x1D7A JUMP JUMPDEST SWAP3 POP POP PUSH1 0x80 DUP7 ADD CALLDATALOAD PUSH8 0xFFFFFFFFFFFFFFFF DUP2 GT ISZERO PUSH2 0x26CB JUMPI PUSH2 0x26CA PUSH2 0x1CF6 JUMP JUMPDEST JUMPDEST PUSH2 0x26D7 DUP9 DUP3 DUP10 ADD PUSH2 0x2162 JUMP JUMPDEST SWAP2 POP POP SWAP3 SWAP6 POP SWAP3 SWAP6 SWAP1 SWAP4 POP JUMP JUMPDEST PUSH1 0x0 PUSH1 0x20 DUP3 DUP5 SUB SLT ISZERO PUSH2 0x26FA JUMPI PUSH2 0x26F9 PUSH2 0x1CF1 JUMP JUMPDEST JUMPDEST PUSH1 0x0 PUSH2 0x2708 DUP5 DUP3 DUP6 ADD PUSH2 0x1D44 JUMP JUMPDEST SWAP2 POP POP SWAP3 SWAP2 POP POP JUMP JUMPDEST PUSH32 0x455243313135353A2061646472657373207A65726F206973206E6F7420612076 PUSH1 0x0 DUP3 ADD MSTORE PUSH32 0x616C6964206F776E657200000000000000000000000000000000000000000000 PUSH1 0x20 DUP3 ADD MSTORE POP JUMP JUMPDEST PUSH1 0x0 PUSH2 0x276D PUSH1 0x2A DUP4 PUSH2 0x1EEC JUMP JUMPDEST SWAP2 POP PUSH2 0x2778 DUP3 PUSH2 0x2711 JUMP JUMPDEST PUSH1 0x40 DUP3 ADD SWAP1 POP SWAP2 SWAP1 POP JUMP JUMPDEST PUSH1 0x0 PUSH1 0x20 DUP3 ADD SWAP1 POP DUP2 DUP2 SUB PUSH1 0x0 DUP4 ADD MSTORE PUSH2 0x279C DUP2 PUSH2 0x2760 JUMP JUMPDEST SWAP1 POP SWAP2 SWAP1 POP JUMP JUMPDEST PUSH32 0x4E487B7100000000000000000000000000000000000000000000000000000000 PUSH1 0x0 MSTORE PUSH1 0x22 PUSH1 0x4 MSTORE PUSH1 0x24 PUSH1 0x0 REVERT JUMPDEST PUSH1 0x0 PUSH1 0x2 DUP3 DIV SWAP1 POP PUSH1 0x1 DUP3 AND DUP1 PUSH2 0x27EA JUMPI PUSH1 0x7F DUP3 AND SWAP2 POP JUMPDEST PUSH1 0x20 DUP3 LT DUP2 SUB PUSH2 0x27FD JUMPI PUSH2 0x27FC PUSH2 0x27A3 JUMP JUMPDEST JUMPDEST POP SWAP2 SWAP1 POP JUMP JUMPDEST PUSH32 0x455243313135353A2063616C6C6572206973206E6F7420746F6B656E206F776E PUSH1 0x0 DUP3 ADD MSTORE PUSH32 0x6572206F7220617070726F766564000000000000000000000000000000000000 PUSH1 0x20 DUP3 ADD MSTORE POP JUMP JUMPDEST PUSH1 0x0 PUSH2 0x285F PUSH1 0x2E DUP4 PUSH2 0x1EEC JUMP JUMPDEST SWAP2 POP PUSH2 0x286A DUP3 PUSH2 0x2803 JUMP JUMPDEST PUSH1 0x40 DUP3 ADD SWAP1 POP SWAP2 SWAP1 POP JUMP JUMPDEST PUSH1 0x0 PUSH1 0x20 DUP3 ADD SWAP1 POP DUP2 DUP2 SUB PUSH1 0x0 DUP4 ADD MSTORE PUSH2 0x288E DUP2 PUSH2 0x2852 JUMP JUMPDEST SWAP1 POP SWAP2 SWAP1 POP JUMP JUMPDEST PUSH32 0x455243313135353A206163636F756E747320616E6420696473206C656E677468 PUSH1 0x0 DUP3 ADD MSTORE PUSH32 0x206D69736D617463680000000000000000000000000000000000000000000000 PUSH1 0x20 DUP3 ADD MSTORE POP JUMP JUMPDEST PUSH1 0x0 PUSH2 0x28F1 PUSH1 0x29 DUP4 PUSH2 0x1EEC JUMP JUMPDEST SWAP2 POP PUSH2 0x28FC DUP3 PUSH2 0x2895 JUMP JUMPDEST PUSH1 0x40 DUP3 ADD SWAP1 POP SWAP2 SWAP1 POP JUMP JUMPDEST PUSH1 0x0 PUSH1 0x20 DUP3 ADD SWAP1 POP DUP2 DUP2 SUB PUSH1 0x0 DUP4 ADD MSTORE PUSH2 0x2920 DUP2 PUSH2 0x28E4 JUMP JUMPDEST SWAP1 POP SWAP2 SWAP1 POP JUMP JUMPDEST PUSH32 0x4E487B7100000000000000000000000000000000000000000000000000000000 PUSH1 0x0 MSTORE PUSH1 0x32 PUSH1 0x4 MSTORE PUSH1 0x24 PUSH1 0x0 REVERT JUMPDEST PUSH32 0x4E487B7100000000000000000000000000000000000000000000000000000000 PUSH1 0x0 MSTORE PUSH1 0x11 PUSH1 0x4 MSTORE PUSH1 0x24 PUSH1 0x0 REVERT JUMPDEST PUSH1 0x0 PUSH2 0x2990 DUP3 PUSH2 0x1D59 JUMP JUMPDEST SWAP2 POP PUSH32 0xFFFFFFFFFFFFFFFFFFFFFFFFFFFFFFFFFFFFFFFFFFFFFFFFFFFFFFFFFFFFFFFF DUP3 SUB PUSH2 0x29C2 JUMPI PUSH2 0x29C1 PUSH2 0x2956 JUMP JUMPDEST JUMPDEST PUSH1 0x1 DUP3 ADD SWAP1 POP SWAP2 SWAP1 POP JUMP JUMPDEST PUSH1 0x0 PUSH2 0x29D8 DUP3 PUSH2 0x1D59 JUMP JUMPDEST SWAP2 POP PUSH2 0x29E3 DUP4 PUSH2 0x1D59 JUMP JUMPDEST SWAP3 POP DUP3 DUP3 MUL PUSH2 0x29F1 DUP2 PUSH2 0x1D59 JUMP JUMPDEST SWAP2 POP DUP3 DUP3 DIV DUP5 EQ DUP4 ISZERO OR PUSH2 0x2A08 JUMPI PUSH2 0x2A07 PUSH2 0x2956 JUMP JUMPDEST JUMPDEST POP SWAP3 SWAP2 POP POP JUMP JUMPDEST PUSH32 0x496E73756666696369656E742066756E64730000000000000000000000000000 PUSH1 0x0 DUP3 ADD MSTORE POP JUMP JUMPDEST PUSH1 0x0 PUSH2 0x2A45 PUSH1 0x12 DUP4 PUSH2 0x1EEC JUMP JUMPDEST SWAP2 POP PUSH2 0x2A50 DUP3 PUSH2 0x2A0F JUMP JUMPDEST PUSH1 0x20 DUP3 ADD SWAP1 POP SWAP2 SWAP1 POP JUMP JUMPDEST PUSH1 0x0 PUSH1 0x20 DUP3 ADD SWAP1 POP DUP2 DUP2 SUB PUSH1 0x0 DUP4 ADD MSTORE PUSH2 0x2A74 DUP2 PUSH2 0x2A38 JUMP JUMPDEST SWAP1 POP SWAP2 SWAP1 POP JUMP JUMPDEST PUSH32 0x4F776E61626C653A206E6577206F776E657220697320746865207A65726F2061 PUSH1 0x0 DUP3 ADD MSTORE PUSH32 0x6464726573730000000000000000000000000000000000000000000000000000 PUSH1 0x20 DUP3 ADD MSTORE POP JUMP JUMPDEST PUSH1 0x0 PUSH2 0x2AD7 PUSH1 0x26 DUP4 PUSH2 0x1EEC JUMP JUMPDEST SWAP2 POP PUSH2 0x2AE2 DUP3 PUSH2 0x2A7B JUMP JUMPDEST PUSH1 0x40 DUP3 ADD SWAP1 POP SWAP2 SWAP1 POP JUMP JUMPDEST PUSH1 0x0 PUSH1 0x20 DUP3 ADD SWAP1 POP DUP2 DUP2 SUB PUSH1 0x0 DUP4 ADD MSTORE PUSH2 0x2B06 DUP2 PUSH2 0x2ACA JUMP JUMPDEST SWAP1 POP SWAP2 SWAP1 POP JUMP JUMPDEST PUSH32 0x455243313135353A2069647320616E6420616D6F756E7473206C656E67746820 PUSH1 0x0 DUP3 ADD MSTORE PUSH32 0x6D69736D61746368000000000000000000000000000000000000000000000000 PUSH1 0x20 DUP3 ADD MSTORE POP JUMP JUMPDEST PUSH1 0x0 PUSH2 0x2B69 PUSH1 0x28 DUP4 PUSH2 0x1EEC JUMP JUMPDEST SWAP2 POP PUSH2 0x2B74 DUP3 PUSH2 0x2B0D JUMP JUMPDEST PUSH1 0x40 DUP3 ADD SWAP1 POP SWAP2 SWAP1 POP JUMP JUMPDEST PUSH1 0x0 PUSH1 0x20 DUP3 ADD SWAP1 POP DUP2 DUP2 SUB PUSH1 0x0 DUP4 ADD MSTORE PUSH2 0x2B98 DUP2 PUSH2 0x2B5C JUMP JUMPDEST SWAP1 POP SWAP2 SWAP1 POP JUMP JUMPDEST PUSH32 0x455243313135353A207472616E7366657220746F20746865207A65726F206164 PUSH1 0x0 DUP3 ADD MSTORE PUSH32 0x6472657373000000000000000000000000000000000000000000000000000000 PUSH1 0x20 DUP3 ADD MSTORE POP JUMP JUMPDEST PUSH1 0x0 PUSH2 0x2BFB PUSH1 0x25 DUP4 PUSH2 0x1EEC JUMP JUMPDEST SWAP2 POP PUSH2 0x2C06 DUP3 PUSH2 0x2B9F JUMP JUMPDEST PUSH1 0x40 DUP3 ADD SWAP1 POP SWAP2 SWAP1 POP JUMP JUMPDEST PUSH1 0x0 PUSH1 0x20 DUP3 ADD SWAP1 POP DUP2 DUP2 SUB PUSH1 0x0 DUP4 ADD MSTORE PUSH2 0x2C2A DUP2 PUSH2 0x2BEE JUMP JUMPDEST SWAP1 POP SWAP2 SWAP1 POP JUMP JUMPDEST PUSH32 0x455243313135353A20696E73756666696369656E742062616C616E636520666F PUSH1 0x0 DUP3 ADD MSTORE PUSH32 0x72207472616E7366657200000000000000000000000000000000000000000000 PUSH1 0x20 DUP3 ADD MSTORE POP JUMP JUMPDEST PUSH1 0x0 PUSH2 0x2C8D PUSH1 0x2A DUP4 PUSH2 0x1EEC JUMP JUMPDEST SWAP2 POP PUSH2 0x2C98 DUP3 PUSH2 0x2C31 JUMP JUMPDEST PUSH1 0x40 DUP3 ADD SWAP1 POP SWAP2 SWAP1 POP JUMP JUMPDEST PUSH1 0x0 PUSH1 0x20 DUP3 ADD SWAP1 POP DUP2 DUP2 SUB PUSH1 0x0 DUP4 ADD MSTORE PUSH2 0x2CBC DUP2 PUSH2 0x2C80 JUMP JUMPDEST SWAP1 POP SWAP2 SWAP1 POP JUMP JUMPDEST PUSH1 0x0 PUSH2 0x2CCE DUP3 PUSH2 0x1D59 JUMP JUMPDEST SWAP2 POP PUSH2 0x2CD9 DUP4 PUSH2 0x1D59 JUMP JUMPDEST SWAP3 POP DUP3 DUP3 ADD SWAP1 POP DUP1 DUP3 GT ISZERO PUSH2 0x2CF1 JUMPI PUSH2 0x2CF0 PUSH2 0x2956 JUMP JUMPDEST JUMPDEST SWAP3 SWAP2 POP POP JUMP JUMPDEST PUSH1 0x0 PUSH1 0x40 DUP3 ADD SWAP1 POP DUP2 DUP2 SUB PUSH1 0x0 DUP4 ADD MSTORE PUSH2 0x2D11 DUP2 DUP6 PUSH2 0x23FA JUMP JUMPDEST SWAP1 POP DUP2 DUP2 SUB PUSH1 0x20 DUP4 ADD MSTORE PUSH2 0x2D25 DUP2 DUP5 PUSH2 0x23FA JUMP JUMPDEST SWAP1 POP SWAP4 SWAP3 POP POP POP JUMP JUMPDEST PUSH32 0x4F776E61626C653A2063616C6C6572206973206E6F7420746865206F776E6572 PUSH1 0x0 DUP3 ADD MSTORE POP JUMP JUMPDEST PUSH1 0x0 PUSH2 0x2D64 PUSH1 0x20 DUP4 PUSH2 0x1EEC JUMP JUMPDEST SWAP2 POP PUSH2 0x2D6F DUP3 PUSH2 0x2D2E JUMP JUMPDEST PUSH1 0x20 DUP3 ADD SWAP1 POP SWAP2 SWAP1 POP JUMP JUMPDEST PUSH1 0x0 PUSH1 0x20 DUP3 ADD SWAP1 POP DUP2 DUP2 SUB PUSH1 0x0 DUP4 ADD MSTORE PUSH2 0x2D93 DUP2 PUSH2 0x2D57 JUMP JUMPDEST SWAP1 POP SWAP2 SWAP1 POP JUMP JUMPDEST PUSH32 0x455243313135353A206D696E7420746F20746865207A65726F20616464726573 PUSH1 0x0 DUP3 ADD MSTORE PUSH32 0x7300000000000000000000000000000000000000000000000000000000000000 PUSH1 0x20 DUP3 ADD MSTORE POP JUMP JUMPDEST PUSH1 0x0 PUSH2 0x2DF6 PUSH1 0x21 DUP4 PUSH2 0x1EEC JUMP JUMPDEST SWAP2 POP PUSH2 0x2E01 DUP3 PUSH2 0x2D9A JUMP JUMPDEST PUSH1 0x40 DUP3 ADD SWAP1 POP SWAP2 SWAP1 POP JUMP JUMPDEST PUSH1 0x0 PUSH1 0x20 DUP3 ADD SWAP1 POP DUP2 DUP2 SUB PUSH1 0x0 DUP4 ADD MSTORE PUSH2 0x2E25 DUP2 PUSH2 0x2DE9 JUMP JUMPDEST SWAP1 POP SWAP2 SWAP1 POP JUMP JUMPDEST PUSH1 0x0 PUSH1 0x40 DUP3 ADD SWAP1 POP PUSH2 0x2E41 PUSH1 0x0 DUP4 ADD DUP6 PUSH2 0x1DCF JUMP JUMPDEST PUSH2 0x2E4E PUSH1 0x20 DUP4 ADD DUP5 PUSH2 0x1DCF JUMP JUMPDEST SWAP4 SWAP3 POP POP POP JUMP JUMPDEST PUSH32 0x455243313135353A2073657474696E6720617070726F76616C20737461747573 PUSH1 0x0 DUP3 ADD MSTORE PUSH32 0x20666F722073656C660000000000000000000000000000000000000000000000 PUSH1 0x20 DUP3 ADD MSTORE POP JUMP JUMPDEST PUSH1 0x0 PUSH2 0x2EB1 PUSH1 0x29 DUP4 PUSH2 0x1EEC JUMP JUMPDEST SWAP2 POP PUSH2 0x2EBC DUP3 PUSH2 0x2E55 JUMP JUMPDEST PUSH1 0x40 DUP3 ADD SWAP1 POP SWAP2 SWAP1 POP JUMP JUMPDEST PUSH1 0x0 PUSH1 0x20 DUP3 ADD SWAP1 POP DUP2 DUP2 SUB PUSH1 0x0 DUP4 ADD MSTORE PUSH2 0x2EE0 DUP2 PUSH2 0x2EA4 JUMP JUMPDEST SWAP1 POP SWAP2 SWAP1 POP JUMP JUMPDEST PUSH1 0x0 DUP2 MLOAD SWAP1 POP SWAP2 SWAP1 POP JUMP JUMPDEST PUSH1 0x0 DUP3 DUP3 MSTORE PUSH1 0x20 DUP3 ADD SWAP1 POP SWAP3 SWAP2 POP POP JUMP JUMPDEST PUSH1 0x0 PUSH2 0x2F0E DUP3 PUSH2 0x2EE7 JUMP JUMPDEST PUSH2 0x2F18 DUP2 DUP6 PUSH2 0x2EF2 JUMP JUMPDEST SWAP4 POP PUSH2 0x2F28 DUP2 DUP6 PUSH1 0x20 DUP7 ADD PUSH2 0x1EFD JUMP JUMPDEST PUSH2 0x2F31 DUP2 PUSH2 0x1F27 JUMP JUMPDEST DUP5 ADD SWAP2 POP POP SWAP3 SWAP2 POP POP JUMP JUMPDEST PUSH1 0x0 PUSH1 0xA0 DUP3 ADD SWAP1 POP PUSH2 0x2F51 PUSH1 0x0 DUP4 ADD DUP9 PUSH2 0x2577 JUMP JUMPDEST PUSH2 0x2F5E PUSH1 0x20 DUP4 ADD DUP8 PUSH2 0x2577 JUMP JUMPDEST DUP2 DUP2 SUB PUSH1 0x40 DUP4 ADD MSTORE PUSH2 0x2F70 DUP2 DUP7 PUSH2 0x23FA JUMP JUMPDEST SWAP1 POP DUP2 DUP2 SUB PUSH1 0x60 DUP4 ADD MSTORE PUSH2 0x2F84 DUP2 DUP6 PUSH2 0x23FA JUMP JUMPDEST SWAP1 POP DUP2 DUP2 SUB PUSH1 0x80 DUP4 ADD MSTORE PUSH2 0x2F98 DUP2 DUP5 PUSH2 0x2F03 JUMP JUMPDEST SWAP1 POP SWAP7 SWAP6 POP POP POP POP POP POP JUMP JUMPDEST PUSH1 0x0 DUP2 MLOAD SWAP1 POP PUSH2 0x2FB3 DUP2 PUSH2 0x1E25 JUMP JUMPDEST SWAP3 SWAP2 POP POP JUMP JUMPDEST PUSH1 0x0 PUSH1 0x20 DUP3 DUP5 SUB SLT ISZERO PUSH2 0x2FCF JUMPI PUSH2 0x2FCE PUSH2 0x1CF1 JUMP JUMPDEST JUMPDEST PUSH1 0x0 PUSH2 0x2FDD DUP5 DUP3 DUP6 ADD PUSH2 0x2FA4 JUMP JUMPDEST SWAP2 POP POP SWAP3 SWAP2 POP POP JUMP JUMPDEST PUSH1 0x0 DUP2 PUSH1 0xE0 SHR SWAP1 POP SWAP2 SWAP1 POP JUMP JUMPDEST PUSH1 0x0 PUSH1 0x3 RETURNDATASIZE GT ISZERO PUSH2 0x3012 JUMPI PUSH1 0x4 PUSH1 0x0 DUP1 RETURNDATACOPY PUSH2 0x300F PUSH1 0x0 MLOAD PUSH2 0x2FE6 JUMP JUMPDEST SWAP1 POP JUMPDEST SWAP1 JUMP JUMPDEST PUSH1 0x0 PUSH1 0x44 RETURNDATASIZE LT PUSH2 0x30A2 JUMPI PUSH2 0x3027 PUSH2 0x1CE7 JUMP JUMPDEST PUSH1 0x4 RETURNDATASIZE SUB PUSH1 0x4 DUP3 RETURNDATACOPY DUP1 MLOAD RETURNDATASIZE PUSH1 0x24 DUP3 ADD GT PUSH8 0xFFFFFFFFFFFFFFFF DUP3 GT OR ISZERO PUSH2 0x304F JUMPI POP POP PUSH2 0x30A2 JUMP JUMPDEST DUP1 DUP3 ADD DUP1 MLOAD PUSH8 0xFFFFFFFFFFFFFFFF DUP2 GT ISZERO PUSH2 0x306D JUMPI POP POP POP POP PUSH2 0x30A2 JUMP JUMPDEST DUP1 PUSH1 0x20 DUP4 ADD ADD PUSH1 0x4 RETURNDATASIZE SUB DUP6 ADD DUP2 GT ISZERO PUSH2 0x308A JUMPI POP POP POP POP POP PUSH2 0x30A2 JUMP JUMPDEST PUSH2 0x3099 DUP3 PUSH1 0x20 ADD DUP6 ADD DUP7 PUSH2 0x1FC7 JUMP JUMPDEST DUP3 SWAP6 POP POP POP POP POP POP JUMPDEST SWAP1 JUMP JUMPDEST PUSH32 0x455243313135353A207472616E7366657220746F206E6F6E2D45524331313535 PUSH1 0x0 DUP3 ADD MSTORE PUSH32 0x526563656976657220696D706C656D656E746572000000000000000000000000 PUSH1 0x20 DUP3 ADD MSTORE POP JUMP JUMPDEST PUSH1 0x0 PUSH2 0x3101 PUSH1 0x34 DUP4 PUSH2 0x1EEC JUMP JUMPDEST SWAP2 POP PUSH2 0x310C DUP3 PUSH2 0x30A5 JUMP JUMPDEST PUSH1 0x40 DUP3 ADD SWAP1 POP SWAP2 SWAP1 POP JUMP JUMPDEST PUSH1 0x0 PUSH1 0x20 DUP3 ADD SWAP1 POP DUP2 DUP2 SUB PUSH1 0x0 DUP4 ADD MSTORE PUSH2 0x3130 DUP2 PUSH2 0x30F4 JUMP JUMPDEST SWAP1 POP SWAP2 SWAP1 POP JUMP JUMPDEST PUSH32 0x455243313135353A204552433131353552656365697665722072656A65637465 PUSH1 0x0 DUP3 ADD MSTORE PUSH32 0x6420746F6B656E73000000000000000000000000000000000000000000000000 PUSH1 0x20 DUP3 ADD MSTORE POP JUMP JUMPDEST PUSH1 0x0 PUSH2 0x3193 PUSH1 0x28 DUP4 PUSH2 0x1EEC JUMP JUMPDEST SWAP2 POP PUSH2 0x319E DUP3 PUSH2 0x3137 JUMP JUMPDEST PUSH1 0x40 DUP3 ADD SWAP1 POP SWAP2 SWAP1 POP JUMP JUMPDEST PUSH1 0x0 PUSH1 0x20 DUP3 ADD SWAP1 POP DUP2 DUP2 SUB PUSH1 0x0 DUP4 ADD MSTORE PUSH2 0x31C2 DUP2 PUSH2 0x3186 JUMP JUMPDEST SWAP1 POP SWAP2 SWAP1 POP JUMP JUMPDEST PUSH1 0x0 PUSH1 0xA0 DUP3 ADD SWAP1 POP PUSH2 0x31DE PUSH1 0x0 DUP4 ADD DUP9 PUSH2 0x2577 JUMP JUMPDEST PUSH2 0x31EB PUSH1 0x20 DUP4 ADD DUP8 PUSH2 0x2577 JUMP JUMPDEST PUSH2 0x31F8 PUSH1 0x40 DUP4 ADD DUP7 PUSH2 0x1DCF JUMP JUMPDEST PUSH2 0x3205 PUSH1 0x60 DUP4 ADD DUP6 PUSH2 0x1DCF JUMP JUMPDEST DUP2 DUP2 SUB PUSH1 0x80 DUP4 ADD MSTORE PUSH2 0x3217 DUP2 DUP5 PUSH2 0x2F03 JUMP JUMPDEST SWAP1 POP SWAP7 SWAP6 POP POP POP POP POP POP JUMP JUMPDEST PUSH32 0x455243313135353A206275726E20616D6F756E74206578636565647320746F74 PUSH1 0x0 DUP3 ADD MSTORE PUSH32 0x616C537570706C79000000000000000000000000000000000000000000000000 PUSH1 0x20 DUP3 ADD MSTORE POP JUMP JUMPDEST PUSH1 0x0 PUSH2 0x327F PUSH1 0x28 DUP4 PUSH2 0x1EEC JUMP JUMPDEST SWAP2 POP PUSH2 0x328A DUP3 PUSH2 0x3223 JUMP JUMPDEST PUSH1 0x40 DUP3 ADD SWAP1 POP SWAP2 SWAP1 POP JUMP JUMPDEST PUSH1 0x0 PUSH1 0x20 DUP3 ADD SWAP1 POP DUP2 DUP2 SUB PUSH1 0x0 DUP4 ADD MSTORE PUSH2 0x32AE DUP2 PUSH2 0x3272 JUMP JUMPDEST SWAP1 POP SWAP2 SWAP1 POP JUMP INVALID LOG2 PUSH5 0x6970667358 0x22 SLT KECCAK256 0x2C SELFDESTRUCT PUSH7 0x419EDF42A71CBA DUP12 PUSH19 0xF4A56C084201258D01BEC969DD54656E0E4665 CALLER PUSH5 0x736F6C6343 STOP ADDMOD GT STOP CALLER "},"methodIdentifiers":{"balanceOf(address,uint256)":"00fdd58e","balanceOfBatch(address[],uint256[])":"4e1273f4","cost()":"13faede6","exists(uint256)":"4f558e79","getTokenIdCounter()":"dbfd4b98","isApprovedForAll(address,address)":"e985e9c5","mint(uint256,string)":"77097fc8","owner()":"8da5cb5b","renounceOwnership()":"715018a6","safeBatchTransferFrom(address,address,uint256[],uint256[],bytes)":"2eb2c2d6","safeTransferFrom(address,address,uint256,uint256,bytes)":"f242432a","setApprovalForAll(address,bool)":"a22cb465","setCost(uint256)":"44a0d68a","supportsInterface(bytes4)":"01ffc9a7","totalSupply(uint256)":"bd85b039","transferOwnership(address)":"f2fde38b","uri(uint256)":"0e89341c","withdraw()":"3ccfd60b"}}}}}