{
  "_format": "hh-sol-artifact-1",
  "contractName": "Minted",
  "sourceName": "contracts/Minted.sol",
  "abi": [
    {
      "inputs": [],
      "stateMutability": "nonpayable",
      "type": "constructor"
    },
    {
      "anonymous": false,
      "inputs": [
        {
          "indexed": true,
          "internalType": "address",
          "name": "account",
          "type": "address"
        },
        {
          "indexed": true,
          "internalType": "address",
          "name": "operator",
          "type": "address"
        },
        {
          "indexed": false,
          "internalType": "bool",
          "name": "approved",
          "type": "bool"
        }
      ],
      "name": "ApprovalForAll",
      "type": "event"
    },
    {
      "anonymous": false,
      "inputs": [
        {
          "indexed": true,
          "internalType": "address",
          "name": "previousOwner",
          "type": "address"
        },
        {
          "indexed": true,
          "internalType": "address",
          "name": "newOwner",
          "type": "address"
        }
      ],
      "name": "OwnershipTransferred",
      "type": "event"
    },
    {
      "anonymous": false,
      "inputs": [
        {
          "indexed": true,
          "internalType": "address",
          "name": "operator",
          "type": "address"
        },
        {
          "indexed": true,
          "internalType": "address",
          "name": "from",
          "type": "address"
        },
        {
          "indexed": true,
          "internalType": "address",
          "name": "to",
          "type": "address"
        },
        {
          "indexed": false,
          "internalType": "uint256[]",
          "name": "ids",
          "type": "uint256[]"
        },
        {
          "indexed": false,
          "internalType": "uint256[]",
          "name": "values",
          "type": "uint256[]"
        }
      ],
      "name": "TransferBatch",
      "type": "event"
    },
    {
      "anonymous": false,
      "inputs": [
        {
          "indexed": true,
          "internalType": "address",
          "name": "operator",
          "type": "address"
        },
        {
          "indexed": true,
          "internalType": "address",
          "name": "from",
          "type": "address"
        },
        {
          "indexed": true,
          "internalType": "address",
          "name": "to",
          "type": "address"
        },
        {
          "indexed": false,
          "internalType": "uint256",
          "name": "id",
          "type": "uint256"
        },
        {
          "indexed": false,
          "internalType": "uint256",
          "name": "value",
          "type": "uint256"
        }
      ],
      "name": "TransferSingle",
      "type": "event"
    },
    {
      "anonymous": false,
      "inputs": [
        {
          "indexed": false,
          "internalType": "string",
          "name": "value",
          "type": "string"
        },
        {
          "indexed": true,
          "internalType": "uint256",
          "name": "id",
          "type": "uint256"
        }
      ],
      "name": "URI",
      "type": "event"
    },
    {
      "inputs": [
        {
          "internalType": "address",
          "name": "account",
          "type": "address"
        },
        {
          "internalType": "uint256",
          "name": "id",
          "type": "uint256"
        }
      ],
      "name": "balanceOf",
      "outputs": [
        {
          "internalType": "uint256",
          "name": "",
          "type": "uint256"
        }
      ],
      "stateMutability": "view",
      "type": "function"
    },
    {
      "inputs": [
        {
          "internalType": "address[]",
          "name": "accounts",
          "type": "address[]"
        },
        {
          "internalType": "uint256[]",
          "name": "ids",
          "type": "uint256[]"
        }
      ],
      "name": "balanceOfBatch",
      "outputs": [
        {
          "internalType": "uint256[]",
          "name": "",
          "type": "uint256[]"
        }
      ],
      "stateMutability": "view",
      "type": "function"
    },
    {
      "inputs": [],
      "name": "cost",
      "outputs": [
        {
          "internalType": "uint256",
          "name": "",
          "type": "uint256"
        }
      ],
      "stateMutability": "view",
      "type": "function"
    },
    {
      "inputs": [
        {
          "internalType": "uint256",
          "name": "id",
          "type": "uint256"
        }
      ],
      "name": "exists",
      "outputs": [
        {
          "internalType": "bool",
          "name": "",
          "type": "bool"
        }
      ],
      "stateMutability": "view",
      "type": "function"
    },
    {
      "inputs": [],
      "name": "getTokenIdCounter",
      "outputs": [
        {
          "internalType": "uint256",
          "name": "",
          "type": "uint256"
        }
      ],
      "stateMutability": "view",
      "type": "function"
    },
    {
      "inputs": [
        {
          "internalType": "address",
          "name": "account",
          "type": "address"
        },
        {
          "internalType": "address",
          "name": "operator",
          "type": "address"
        }
      ],
      "name": "isApprovedForAll",
      "outputs": [
        {
          "internalType": "bool",
          "name": "",
          "type": "bool"
        }
      ],
      "stateMutability": "view",
      "type": "function"
    },
    {
      "inputs": [
        {
          "internalType": "uint256",
          "name": "amount",
          "type": "uint256"
        },
        {
          "internalType": "string",
          "name": "setUri",
          "type": "string"
        }
      ],
      "name": "mint",
      "outputs": [],
      "stateMutability": "payable",
      "type": "function"
    },
    {
      "inputs": [],
      "name": "owner",
      "outputs": [
        {
          "internalType": "address",
          "name": "",
          "type": "address"
        }
      ],
      "stateMutability": "view",
      "type": "function"
    },
    {
      "inputs": [],
      "name": "renounceOwnership",
      "outputs": [],
      "stateMutability": "nonpayable",
      "type": "function"
    },
    {
      "inputs": [
        {
          "internalType": "address",
          "name": "from",
          "type": "address"
        },
        {
          "internalType": "address",
          "name": "to",
          "type": "address"
        },
        {
          "internalType": "uint256[]",
          "name": "ids",
          "type": "uint256[]"
        },
        {
          "internalType": "uint256[]",
          "name": "amounts",
          "type": "uint256[]"
        },
        {
          "internalType": "bytes",
          "name": "data",
          "type": "bytes"
        }
      ],
      "name": "safeBatchTransferFrom",
      "outputs": [],
      "stateMutability": "nonpayable",
      "type": "function"
    },
    {
      "inputs": [
        {
          "internalType": "address",
          "name": "from",
          "type": "address"
        },
        {
          "internalType": "address",
          "name": "to",
          "type": "address"
        },
        {
          "internalType": "uint256",
          "name": "id",
          "type": "uint256"
        },
        {
          "internalType": "uint256",
          "name": "amount",
          "type": "uint256"
        },
        {
          "internalType": "bytes",
          "name": "data",
          "type": "bytes"
        }
      ],
      "name": "safeTransferFrom",
      "outputs": [],
      "stateMutability": "nonpayable",
      "type": "function"
    },
    {
      "inputs": [
        {
          "internalType": "address",
          "name": "operator",
          "type": "address"
        },
        {
          "internalType": "bool",
          "name": "approved",
          "type": "bool"
        }
      ],
      "name": "setApprovalForAll",
      "outputs": [],
      "stateMutability": "nonpayable",
      "type": "function"
    },
    {
      "inputs": [
        {
          "internalType": "uint256",
          "name": "_cost",
          "type": "uint256"
        }
      ],
      "name": "setCost",
      "outputs": [],
      "stateMutability": "nonpayable",
      "type": "function"
    },
    {
      "inputs": [
        {
          "internalType": "bytes4",
          "name": "interfaceId",
          "type": "bytes4"
        }
      ],
      "name": "supportsInterface",
      "outputs": [
        {
          "internalType": "bool",
          "name": "",
          "type": "bool"
        }
      ],
      "stateMutability": "view",
      "type": "function"
    },
    {
      "inputs": [
        {
          "internalType": "uint256",
          "name": "id",
          "type": "uint256"
        }
      ],
      "name": "totalSupply",
      "outputs": [
        {
          "internalType": "uint256",
          "name": "",
          "type": "uint256"
        }
      ],
      "stateMutability": "view",
      "type": "function"
    },
    {
      "inputs": [
        {
          "internalType": "address",
          "name": "newOwner",
          "type": "address"
        }
      ],
      "name": "transferOwnership",
      "outputs": [],
      "stateMutability": "nonpayable",
      "type": "function"
    },
    {
      "inputs": [
        {
          "internalType": "uint256",
          "name": "",
          "type": "uint256"
        }
      ],
      "name": "uri",
      "outputs": [
        {
          "internalType": "string",
          "name": "",
          "type": "string"
        }
      ],
      "stateMutability": "view",
      "type": "function"
    },
    {
      "inputs": [],
      "name": "withdraw",
      "outputs": [],
      "stateMutability": "nonpayable",
      "type": "function"
    }
  ],
  "bytecode": "0x6080604052662386f26fc1000060055560006006553480156200002157600080fd5b506040518060200160405280600081525062000043816200006a60201b60201c565b5062000064620000586200007f60201b60201c565b6200008760201b60201c565b620004ae565b80600290816200007b9190620003c7565b5050565b600033905090565b6000600360009054906101000a900473ffffffffffffffffffffffffffffffffffffffff16905081600360006101000a81548173ffffffffffffffffffffffffffffffffffffffff021916908373ffffffffffffffffffffffffffffffffffffffff1602179055508173ffffffffffffffffffffffffffffffffffffffff168173ffffffffffffffffffffffffffffffffffffffff167f8be0079c531659141344cd1fd0a4f28419497f9722a3daafe3b4186f6b6457e060405160405180910390a35050565b600081519050919050565b7f4e487b7100000000000000000000000000000000000000000000000000000000600052604160045260246000fd5b7f4e487b7100000000000000000000000000000000000000000000000000000000600052602260045260246000fd5b60006002820490506001821680620001cf57607f821691505b602082108103620001e557620001e462000187565b5b50919050565b60008190508160005260206000209050919050565b60006020601f8301049050919050565b600082821b905092915050565b6000600883026200024f7fffffffffffffffffffffffffffffffffffffffffffffffffffffffffffffffff8262000210565b6200025b868362000210565b95508019841693508086168417925050509392505050565b6000819050919050565b6000819050919050565b6000620002a8620002a26200029c8462000273565b6200027d565b62000273565b9050919050565b6000819050919050565b620002c48362000287565b620002dc620002d382620002af565b8484546200021d565b825550505050565b600090565b620002f3620002e4565b62000300818484620002b9565b505050565b5b8181101562000328576200031c600082620002e9565b60018101905062000306565b5050565b601f82111562000377576200034181620001eb565b6200034c8462000200565b810160208510156200035c578190505b620003746200036b8562000200565b83018262000305565b50505b505050565b600082821c905092915050565b60006200039c600019846008026200037c565b1980831691505092915050565b6000620003b7838362000389565b9150826002028217905092915050565b620003d2826200014d565b67ffffffffffffffff811115620003ee57620003ed62000158565b5b620003fa8254620001b6565b620004078282856200032c565b600060209050601f8311600181146200043f57600084156200042a578287015190505b620004368582620003a9565b865550620004a6565b601f1984166200044f86620001eb565b60005b82811015620004795784890151825560018201915060208501945060208101905062000452565b8683101562000499578489015162000495601f89168262000389565b8355505b6001600288020188555050505b505050505050565b6132eb80620004be6000396000f3fe6080604052600436106101085760003560e01c8063715018a611610095578063bd85b03911610064578063bd85b03914610359578063dbfd4b9814610396578063e985e9c5146103c1578063f242432a146103fe578063f2fde38b1461042757610108565b8063715018a6146102d257806377097fc8146102e95780638da5cb5b14610305578063a22cb4651461033057610108565b80632eb2c2d6116100dc5780632eb2c2d6146101ef5780633ccfd60b1461021857806344a0d68a1461022f5780634e1273f4146102585780634f558e791461029557610108565b8062fdd58e1461010d57806301ffc9a71461014a5780630e89341c1461018757806313faede6146101c4575b600080fd5b34801561011957600080fd5b50610134600480360381019061012f9190611d8f565b610450565b6040516101419190611dde565b60405180910390f35b34801561015657600080fd5b50610171600480360381019061016c9190611e51565b610518565b60405161017e9190611e99565b60405180910390f35b34801561019357600080fd5b506101ae60048036038101906101a99190611eb4565b61052a565b6040516101bb9190611f71565b60405180910390f35b3480156101d057600080fd5b506101d96105be565b6040516101e69190611dde565b60405180910390f35b3480156101fb57600080fd5b5061021660048036038101906102119190612190565b6105c4565b005b34801561022457600080fd5b5061022d610665565b005b34801561023b57600080fd5b5061025660048036038101906102519190611eb4565b6106bd565b005b34801561026457600080fd5b5061027f600480360381019061027a9190612322565b6106cf565b60405161028c9190612458565b60405180910390f35b3480156102a157600080fd5b506102bc60048036038101906102b79190611eb4565b6107e8565b6040516102c99190611e99565b60405180910390f35b3480156102de57600080fd5b506102e76107fc565b005b61030360048036038101906102fe919061251b565b610810565b005b34801561031157600080fd5b5061031a6108c9565b6040516103279190612586565b60405180910390f35b34801561033c57600080fd5b50610357600480360381019061035291906125cd565b6108f3565b005b34801561036557600080fd5b50610380600480360381019061037b9190611eb4565b610909565b60405161038d9190611dde565b60405180910390f35b3480156103a257600080fd5b506103ab61091b565b6040516103b89190611dde565b60405180910390f35b3480156103cd57600080fd5b506103e860048036038101906103e3919061260d565b610925565b6040516103f59190611e99565b60405180910390f35b34801561040a57600080fd5b506104256004803603810190610420919061264d565b6109b9565b005b34801561043357600080fd5b5061044e600480360381019061044991906126e4565b610a5a565b005b60008073ffffffffffffffffffffffffffffffffffffffff168373ffffffffffffffffffffffffffffffffffffffff16036104c0576040517f08c379a00000000000000000000000000000000000000000000000000000000081526004016104b790612783565b60405180910390fd5b60008083815260200190815260200160002060008473ffffffffffffffffffffffffffffffffffffffff1673ffffffffffffffffffffffffffffffffffffffff16815260200190815260200160002054905092915050565b600061052382610add565b9050919050565b606060028054610539906127d2565b80601f0160208091040260200160405190810160405280929190818152602001828054610565906127d2565b80156105b25780601f10610587576101008083540402835291602001916105b2565b820191906000526020600020905b81548152906001019060200180831161059557829003601f168201915b50505050509050919050565b60055481565b6105cc610bbf565b73ffffffffffffffffffffffffffffffffffffffff168573ffffffffffffffffffffffffffffffffffffffff16148061061257506106118561060c610bbf565b610925565b5b610651576040517f08c379a000000000000000000000000000000000000000000000000000000000815260040161064890612875565b60405180910390fd5b61065e8585858585610bc7565b5050505050565b61066d610ee8565b6106756108c9565b73ffffffffffffffffffffffffffffffffffffffff166108fc479081150290604051600060405180830381858888f193505050501580156106ba573d6000803e3d6000fd5b50565b6106c5610ee8565b8060058190555050565b60608151835114610715576040517f08c379a000000000000000000000000000000000000000000000000000000000815260040161070c90612907565b60405180910390fd5b6000835167ffffffffffffffff81111561073257610731611f98565b5b6040519080825280602002602001820160405280156107605781602001602082028036833780820191505090505b50905060005b84518110156107dd576107ad85828151811061078557610784612927565b5b60200260200101518583815181106107a05761079f612927565b5b6020026020010151610450565b8282815181106107c0576107bf612927565b5b602002602001018181525050806107d690612985565b9050610766565b508091505092915050565b6000806107f483610f66565b119050919050565b610804610ee8565b61080e6000610f83565b565b8160055461081e91906129cd565b341015610860576040517f08c379a000000000000000000000000000000000000000000000000000000000815260040161085790612a5b565b60405180910390fd5b60005b828110156108c4576000600654905061088e3382600160405180602001604052806000815250611049565b61089881846111f9565b600660008154809291906108ab90612985565b91905055505080806108bc90612985565b915050610863565b505050565b6000600360009054906101000a900473ffffffffffffffffffffffffffffffffffffffff16905090565b6109056108fe610bbf565b8383611235565b5050565b600061091482610f66565b9050919050565b6000600654905090565b6000600160008473ffffffffffffffffffffffffffffffffffffffff1673ffffffffffffffffffffffffffffffffffffffff16815260200190815260200160002060008373ffffffffffffffffffffffffffffffffffffffff1673ffffffffffffffffffffffffffffffffffffffff16815260200190815260200160002060009054906101000a900460ff16905092915050565b6109c1610bbf565b73ffffffffffffffffffffffffffffffffffffffff168573ffffffffffffffffffffffffffffffffffffffff161480610a075750610a0685610a01610bbf565b610925565b5b610a46576040517f08c379a0000000000000000000000000000000000000000000000000000000008152600401610a3d90612875565b60405180910390fd5b610a5385858585856113a1565b5050505050565b610a62610ee8565b600073ffffffffffffffffffffffffffffffffffffffff168173ffffffffffffffffffffffffffffffffffffffff1603610ad1576040517f08c379a0000000000000000000000000000000000000000000000000000000008152600401610ac890612aed565b60405180910390fd5b610ada81610f83565b50565b60007fd9b67a26000000000000000000000000000000000000000000000000000000007bffffffffffffffffffffffffffffffffffffffffffffffffffffffff1916827bffffffffffffffffffffffffffffffffffffffffffffffffffffffff19161480610ba857507f0e89341c000000000000000000000000000000000000000000000000000000007bffffffffffffffffffffffffffffffffffffffffffffffffffffffff1916827bffffffffffffffffffffffffffffffffffffffffffffffffffffffff1916145b80610bb85750610bb78261163c565b5b9050919050565b600033905090565b8151835114610c0b576040517f08c379a0000000000000000000000000000000000000000000000000000000008152600401610c0290612b7f565b60405180910390fd5b600073ffffffffffffffffffffffffffffffffffffffff168473ffffffffffffffffffffffffffffffffffffffff1603610c7a576040517f08c379a0000000000000000000000000000000000000000000000000000000008152600401610c7190612c11565b60405180910390fd5b6000610c84610bbf565b9050610c948187878787876116a6565b60005b8451811015610e45576000858281518110610cb557610cb4612927565b5b602002602001015190506000858381518110610cd457610cd3612927565b5b60200260200101519050600080600084815260200190815260200160002060008b73ffffffffffffffffffffffffffffffffffffffff1673ffffffffffffffffffffffffffffffffffffffff16815260200190815260200160002054905081811015610d75576040517f08c379a0000000000000000000000000000000000000000000000000000000008152600401610d6c90612ca3565b60405180910390fd5b81810360008085815260200190815260200160002060008c73ffffffffffffffffffffffffffffffffffffffff1673ffffffffffffffffffffffffffffffffffffffff168152602001908152602001600020819055508160008085815260200190815260200160002060008b73ffffffffffffffffffffffffffffffffffffffff1673ffffffffffffffffffffffffffffffffffffffff1681526020019081526020016000206000828254610e2a9190612cc3565b9250508190555050505080610e3e90612985565b9050610c97565b508473ffffffffffffffffffffffffffffffffffffffff168673ffffffffffffffffffffffffffffffffffffffff168273ffffffffffffffffffffffffffffffffffffffff167f4a39dc06d4c0dbc64b70af90fd698a233a518aa5d07e595d983b8c0526c8f7fb8787604051610ebc929190612cf7565b60405180910390a4610ed28187878787876116bc565b610ee08187878787876116c4565b505050505050565b610ef0610bbf565b73ffffffffffffffffffffffffffffffffffffffff16610f0e6108c9565b73ffffffffffffffffffffffffffffffffffffffff1614610f64576040517f08c379a0000000000000000000000000000000000000000000000000000000008152600401610f5b90612d7a565b60405180910390fd5b565b600060046000838152602001908152602001600020549050919050565b6000600360009054906101000a900473ffffffffffffffffffffffffffffffffffffffff16905081600360006101000a81548173ffffffffffffffffffffffffffffffffffffffff021916908373ffffffffffffffffffffffffffffffffffffffff1602179055508173ffffffffffffffffffffffffffffffffffffffff168173ffffffffffffffffffffffffffffffffffffffff167f8be0079c531659141344cd1fd0a4f28419497f9722a3daafe3b4186f6b6457e060405160405180910390a35050565b600073ffffffffffffffffffffffffffffffffffffffff168473ffffffffffffffffffffffffffffffffffffffff16036110b8576040517f08c379a00000000000000000000000000000000000000000000000000000000081526004016110af90612e0c565b60405180910390fd5b60006110c2610bbf565b905060006110cf8561189b565b905060006110dc8561189b565b90506110ed836000898585896116a6565b8460008088815260200190815260200160002060008973ffffffffffffffffffffffffffffffffffffffff1673ffffffffffffffffffffffffffffffffffffffff168152602001908152602001600020600082825461114c9190612cc3565b925050819055508673ffffffffffffffffffffffffffffffffffffffff16600073ffffffffffffffffffffffffffffffffffffffff168473ffffffffffffffffffffffffffffffffffffffff167fc3d58168c5ae7397731d063d5bbf3d657854427343f4c083240f7aacaa2d0f6289896040516111ca929190612e2c565b60405180910390a46111e1836000898585896116bc565b6111f083600089898989611915565b50505050505050565b817f6bb7ff708619ba0610cba295a58592e0451dee2622938c8755667688daf3529b826040516112299190611f71565b60405180910390a25050565b8173ffffffffffffffffffffffffffffffffffffffff168373ffffffffffffffffffffffffffffffffffffffff16036112a3576040517f08c379a000000000000000000000000000000000000000000000000000000000815260040161129a90612ec7565b60405180910390fd5b80600160008573ffffffffffffffffffffffffffffffffffffffff1673ffffffffffffffffffffffffffffffffffffffff16815260200190815260200160002060008473ffffffffffffffffffffffffffffffffffffffff1673ffffffffffffffffffffffffffffffffffffffff16815260200190815260200160002060006101000a81548160ff0219169083151502179055508173ffffffffffffffffffffffffffffffffffffffff168373ffffffffffffffffffffffffffffffffffffffff167f17307eab39ab6107e8899845ad3d59bd9653f200f220920489ca2b5937696c31836040516113949190611e99565b60405180910390a3505050565b600073ffffffffffffffffffffffffffffffffffffffff168473ffffffffffffffffffffffffffffffffffffffff1603611410576040517f08c379a000000000000000000000000000000000000000000000000000000000815260040161140790612c11565b60405180910390fd5b600061141a610bbf565b905060006114278561189b565b905060006114348561189b565b90506114448389898585896116a6565b600080600088815260200190815260200160002060008a73ffffffffffffffffffffffffffffffffffffffff1673ffffffffffffffffffffffffffffffffffffffff168152602001908152602001600020549050858110156114db576040517f08c379a00000000000000000000000000000000000000000000000000000000081526004016114d290612ca3565b60405180910390fd5b85810360008089815260200190815260200160002060008b73ffffffffffffffffffffffffffffffffffffffff1673ffffffffffffffffffffffffffffffffffffffff168152602001908152602001600020819055508560008089815260200190815260200160002060008a73ffffffffffffffffffffffffffffffffffffffff1673ffffffffffffffffffffffffffffffffffffffff16815260200190815260200160002060008282546115909190612cc3565b925050819055508773ffffffffffffffffffffffffffffffffffffffff168973ffffffffffffffffffffffffffffffffffffffff168573ffffffffffffffffffffffffffffffffffffffff167fc3d58168c5ae7397731d063d5bbf3d657854427343f4c083240f7aacaa2d0f628a8a60405161160d929190612e2c565b60405180910390a4611623848a8a86868a6116bc565b611631848a8a8a8a8a611915565b505050505050505050565b60007f01ffc9a7000000000000000000000000000000000000000000000000000000007bffffffffffffffffffffffffffffffffffffffffffffffffffffffff1916827bffffffffffffffffffffffffffffffffffffffffffffffffffffffff1916149050919050565b6116b4868686868686611aec565b505050505050565b505050505050565b6116e38473ffffffffffffffffffffffffffffffffffffffff16611cbc565b15611893578373ffffffffffffffffffffffffffffffffffffffff1663bc197c8187878686866040518663ffffffff1660e01b8152600401611729959493929190612f3c565b6020604051808303816000875af192505050801561176557506040513d601f19601f820116820180604052508101906117629190612fb9565b60015b61180a57611771612ff3565b806308c379a0036117cd5750611785613015565b8061179057506117cf565b806040517f08c379a00000000000000000000000000000000000000000000000000000000081526004016117c49190611f71565b60405180910390fd5b505b6040517f08c379a000000000000000000000000000000000000000000000000000000000815260040161180190613117565b60405180910390fd5b63bc197c8160e01b7bffffffffffffffffffffffffffffffffffffffffffffffffffffffff1916817bffffffffffffffffffffffffffffffffffffffffffffffffffffffff191614611891576040517f08c379a0000000000000000000000000000000000000000000000000000000008152600401611888906131a9565b60405180910390fd5b505b505050505050565b60606000600167ffffffffffffffff8111156118ba576118b9611f98565b5b6040519080825280602002602001820160405280156118e85781602001602082028036833780820191505090505b5090508281600081518110611900576118ff612927565b5b60200260200101818152505080915050919050565b6119348473ffffffffffffffffffffffffffffffffffffffff16611cbc565b15611ae4578373ffffffffffffffffffffffffffffffffffffffff1663f23a6e6187878686866040518663ffffffff1660e01b815260040161197a9594939291906131c9565b6020604051808303816000875af19250505080156119b657506040513d601f19601f820116820180604052508101906119b39190612fb9565b60015b611a5b576119c2612ff3565b806308c379a003611a1e57506119d6613015565b806119e15750611a20565b806040517f08c379a0000000000000000000000000000000000000000000000000000000008152600401611a159190611f71565b60405180910390fd5b505b6040517f08c379a0000000000000000000000000000000000000000000000000000000008152600401611a5290613117565b60405180910390fd5b63f23a6e6160e01b7bffffffffffffffffffffffffffffffffffffffffffffffffffffffff1916817bffffffffffffffffffffffffffffffffffffffffffffffffffffffff191614611ae2576040517f08c379a0000000000000000000000000000000000000000000000000000000008152600401611ad9906131a9565b60405180910390fd5b505b505050505050565b611afa868686868686611cdf565b600073ffffffffffffffffffffffffffffffffffffffff168573ffffffffffffffffffffffffffffffffffffffff1603611bab5760005b8351811015611ba957828181518110611b4d57611b4c612927565b5b602002602001015160046000868481518110611b6c57611b6b612927565b5b602002602001015181526020019081526020016000206000828254611b919190612cc3565b9250508190555080611ba290612985565b9050611b31565b505b600073ffffffffffffffffffffffffffffffffffffffff168473ffffffffffffffffffffffffffffffffffffffff1603611cb45760005b8351811015611cb2576000848281518110611c0057611bff612927565b5b602002602001015190506000848381518110611c1f57611c1e612927565b5b6020026020010151905060006004600084815260200190815260200160002054905081811015611c84576040517f08c379a0000000000000000000000000000000000000000000000000000000008152600401611c7b90613295565b60405180910390fd5b818103600460008581526020019081526020016000208190555050505080611cab90612985565b9050611be2565b505b505050505050565b6000808273ffffffffffffffffffffffffffffffffffffffff163b119050919050565b505050505050565b6000604051905090565b600080fd5b600080fd5b600073ffffffffffffffffffffffffffffffffffffffff82169050919050565b6000611d2682611cfb565b9050919050565b611d3681611d1b565b8114611d4157600080fd5b50565b600081359050611d5381611d2d565b92915050565b6000819050919050565b611d6c81611d59565b8114611d7757600080fd5b50565b600081359050611d8981611d63565b92915050565b60008060408385031215611da657611da5611cf1565b5b6000611db485828601611d44565b9250506020611dc585828601611d7a565b9150509250929050565b611dd881611d59565b82525050565b6000602082019050611df36000830184611dcf565b92915050565b60007fffffffff0000000000000000000000000000000000000000000000000000000082169050919050565b611e2e81611df9565b8114611e3957600080fd5b50565b600081359050611e4b81611e25565b92915050565b600060208284031215611e6757611e66611cf1565b5b6000611e7584828501611e3c565b91505092915050565b60008115159050919050565b611e9381611e7e565b82525050565b6000602082019050611eae6000830184611e8a565b92915050565b600060208284031215611eca57611ec9611cf1565b5b6000611ed884828501611d7a565b91505092915050565b600081519050919050565b600082825260208201905092915050565b60005b83811015611f1b578082015181840152602081019050611f00565b60008484015250505050565b6000601f19601f8301169050919050565b6000611f4382611ee1565b611f4d8185611eec565b9350611f5d818560208601611efd565b611f6681611f27565b840191505092915050565b60006020820190508181036000830152611f8b8184611f38565b905092915050565b600080fd5b7f4e487b7100000000000000000000000000000000000000000000000000000000600052604160045260246000fd5b611fd082611f27565b810181811067ffffffffffffffff82111715611fef57611fee611f98565b5b80604052505050565b6000612002611ce7565b905061200e8282611fc7565b919050565b600067ffffffffffffffff82111561202e5761202d611f98565b5b602082029050602081019050919050565b600080fd5b600061205761205284612013565b611ff8565b9050808382526020820190506020840283018581111561207a5761207961203f565b5b835b818110156120a3578061208f8882611d7a565b84526020840193505060208101905061207c565b5050509392505050565b600082601f8301126120c2576120c1611f93565b5b81356120d2848260208601612044565b91505092915050565b600080fd5b600067ffffffffffffffff8211156120fb576120fa611f98565b5b61210482611f27565b9050602081019050919050565b82818337600083830152505050565b600061213361212e846120e0565b611ff8565b90508281526020810184848401111561214f5761214e6120db565b5b61215a848285612111565b509392505050565b600082601f83011261217757612176611f93565b5b8135612187848260208601612120565b91505092915050565b600080600080600060a086880312156121ac576121ab611cf1565b5b60006121ba88828901611d44565b95505060206121cb88828901611d44565b945050604086013567ffffffffffffffff8111156121ec576121eb611cf6565b5b6121f8888289016120ad565b935050606086013567ffffffffffffffff81111561221957612218611cf6565b5b612225888289016120ad565b925050608086013567ffffffffffffffff81111561224657612245611cf6565b5b61225288828901612162565b9150509295509295909350565b600067ffffffffffffffff82111561227a57612279611f98565b5b602082029050602081019050919050565b600061229e6122998461225f565b611ff8565b905080838252602082019050602084028301858111156122c1576122c061203f565b5b835b818110156122ea57806122d68882611d44565b8452602084019350506020810190506122c3565b5050509392505050565b600082601f83011261230957612308611f93565b5b813561231984826020860161228b565b91505092915050565b6000806040838503121561233957612338611cf1565b5b600083013567ffffffffffffffff81111561235757612356611cf6565b5b612363858286016122f4565b925050602083013567ffffffffffffffff81111561238457612383611cf6565b5b612390858286016120ad565b9150509250929050565b600081519050919050565b600082825260208201905092915050565b6000819050602082019050919050565b6123cf81611d59565b82525050565b60006123e183836123c6565b60208301905092915050565b6000602082019050919050565b60006124058261239a565b61240f81856123a5565b935061241a836123b6565b8060005b8381101561244b57815161243288826123d5565b975061243d836123ed565b92505060018101905061241e565b5085935050505092915050565b6000602082019050818103600083015261247281846123fa565b905092915050565b600067ffffffffffffffff82111561249557612494611f98565b5b61249e82611f27565b9050602081019050919050565b60006124be6124b98461247a565b611ff8565b9050828152602081018484840111156124da576124d96120db565b5b6124e5848285612111565b509392505050565b600082601f83011261250257612501611f93565b5b81356125128482602086016124ab565b91505092915050565b6000806040838503121561253257612531611cf1565b5b600061254085828601611d7a565b925050602083013567ffffffffffffffff81111561256157612560611cf6565b5b61256d858286016124ed565b9150509250929050565b61258081611d1b565b82525050565b600060208201905061259b6000830184612577565b92915050565b6125aa81611e7e565b81146125b557600080fd5b50565b6000813590506125c7816125a1565b92915050565b600080604083850312156125e4576125e3611cf1565b5b60006125f285828601611d44565b9250506020612603858286016125b8565b9150509250929050565b6000806040838503121561262457612623611cf1565b5b600061263285828601611d44565b925050602061264385828601611d44565b9150509250929050565b600080600080600060a0868803121561266957612668611cf1565b5b600061267788828901611d44565b955050602061268888828901611d44565b945050604061269988828901611d7a565b93505060606126aa88828901611d7a565b925050608086013567ffffffffffffffff8111156126cb576126ca611cf6565b5b6126d788828901612162565b9150509295509295909350565b6000602082840312156126fa576126f9611cf1565b5b600061270884828501611d44565b91505092915050565b7f455243313135353a2061646472657373207a65726f206973206e6f742061207660008201527f616c6964206f776e657200000000000000000000000000000000000000000000602082015250565b600061276d602a83611eec565b915061277882612711565b604082019050919050565b6000602082019050818103600083015261279c81612760565b9050919050565b7f4e487b7100000000000000000000000000000000000000000000000000000000600052602260045260246000fd5b600060028204905060018216806127ea57607f821691505b6020821081036127fd576127fc6127a3565b5b50919050565b7f455243313135353a2063616c6c6572206973206e6f7420746f6b656e206f776e60008201527f6572206f7220617070726f766564000000000000000000000000000000000000602082015250565b600061285f602e83611eec565b915061286a82612803565b604082019050919050565b6000602082019050818103600083015261288e81612852565b9050919050565b7f455243313135353a206163636f756e747320616e6420696473206c656e67746860008201527f206d69736d617463680000000000000000000000000000000000000000000000602082015250565b60006128f1602983611eec565b91506128fc82612895565b604082019050919050565b60006020820190508181036000830152612920816128e4565b9050919050565b7f4e487b7100000000000000000000000000000000000000000000000000000000600052603260045260246000fd5b7f4e487b7100000000000000000000000000000000000000000000000000000000600052601160045260246000fd5b600061299082611d59565b91507fffffffffffffffffffffffffffffffffffffffffffffffffffffffffffffffff82036129c2576129c1612956565b5b600182019050919050565b60006129d882611d59565b91506129e383611d59565b92508282026129f181611d59565b91508282048414831517612a0857612a07612956565b5b5092915050565b7f496e73756666696369656e742066756e64730000000000000000000000000000600082015250565b6000612a45601283611eec565b9150612a5082612a0f565b602082019050919050565b60006020820190508181036000830152612a7481612a38565b9050919050565b7f4f776e61626c653a206e6577206f776e657220697320746865207a65726f206160008201527f6464726573730000000000000000000000000000000000000000000000000000602082015250565b6000612ad7602683611eec565b9150612ae282612a7b565b604082019050919050565b60006020820190508181036000830152612b0681612aca565b9050919050565b7f455243313135353a2069647320616e6420616d6f756e7473206c656e6774682060008201527f6d69736d61746368000000000000000000000000000000000000000000000000602082015250565b6000612b69602883611eec565b9150612b7482612b0d565b604082019050919050565b60006020820190508181036000830152612b9881612b5c565b9050919050565b7f455243313135353a207472616e7366657220746f20746865207a65726f20616460008201527f6472657373000000000000000000000000000000000000000000000000000000602082015250565b6000612bfb602583611eec565b9150612c0682612b9f565b604082019050919050565b60006020820190508181036000830152612c2a81612bee565b9050919050565b7f455243313135353a20696e73756666696369656e742062616c616e636520666f60008201527f72207472616e7366657200000000000000000000000000000000000000000000602082015250565b6000612c8d602a83611eec565b9150612c9882612c31565b604082019050919050565b60006020820190508181036000830152612cbc81612c80565b9050919050565b6000612cce82611d59565b9150612cd983611d59565b9250828201905080821115612cf157612cf0612956565b5b92915050565b60006040820190508181036000830152612d1181856123fa565b90508181036020830152612d2581846123fa565b90509392505050565b7f4f776e61626c653a2063616c6c6572206973206e6f7420746865206f776e6572600082015250565b6000612d64602083611eec565b9150612d6f82612d2e565b602082019050919050565b60006020820190508181036000830152612d9381612d57565b9050919050565b7f455243313135353a206d696e7420746f20746865207a65726f2061646472657360008201527f7300000000000000000000000000000000000000000000000000000000000000602082015250565b6000612df6602183611eec565b9150612e0182612d9a565b604082019050919050565b60006020820190508181036000830152612e2581612de9565b9050919050565b6000604082019050612e416000830185611dcf565b612e4e6020830184611dcf565b9392505050565b7f455243313135353a2073657474696e6720617070726f76616c2073746174757360008201527f20666f722073656c660000000000000000000000000000000000000000000000602082015250565b6000612eb1602983611eec565b9150612ebc82612e55565b604082019050919050565b60006020820190508181036000830152612ee081612ea4565b9050919050565b600081519050919050565b600082825260208201905092915050565b6000612f0e82612ee7565b612f188185612ef2565b9350612f28818560208601611efd565b612f3181611f27565b840191505092915050565b600060a082019050612f516000830188612577565b612f5e6020830187612577565b8181036040830152612f7081866123fa565b90508181036060830152612f8481856123fa565b90508181036080830152612f988184612f03565b90509695505050505050565b600081519050612fb381611e25565b92915050565b600060208284031215612fcf57612fce611cf1565b5b6000612fdd84828501612fa4565b91505092915050565b60008160e01c9050919050565b600060033d11156130125760046000803e61300f600051612fe6565b90505b90565b600060443d106130a257613027611ce7565b60043d036004823e80513d602482011167ffffffffffffffff8211171561304f5750506130a2565b808201805167ffffffffffffffff81111561306d57505050506130a2565b80602083010160043d03850181111561308a5750505050506130a2565b61309982602001850186611fc7565b82955050505050505b90565b7f455243313135353a207472616e7366657220746f206e6f6e2d4552433131353560008201527f526563656976657220696d706c656d656e746572000000000000000000000000602082015250565b6000613101603483611eec565b915061310c826130a5565b604082019050919050565b60006020820190508181036000830152613130816130f4565b9050919050565b7f455243313135353a204552433131353552656365697665722072656a6563746560008201527f6420746f6b656e73000000000000000000000000000000000000000000000000602082015250565b6000613193602883611eec565b915061319e82613137565b604082019050919050565b600060208201905081810360008301526131c281613186565b9050919050565b600060a0820190506131de6000830188612577565b6131eb6020830187612577565b6131f86040830186611dcf565b6132056060830185611dcf565b81810360808301526132178184612f03565b90509695505050505050565b7f455243313135353a206275726e20616d6f756e74206578636565647320746f7460008201527f616c537570706c79000000000000000000000000000000000000000000000000602082015250565b600061327f602883611eec565b915061328a82613223565b604082019050919050565b600060208201905081810360008301526132ae81613272565b905091905056fea26469706673582212202cff66419edf42a71cba8b72f4a56c084201258d01bec969dd54656e0e46653364736f6c63430008110033",
  "linkReferences": {},
  "deployedLinkReferences": {}
}